{
  "contractName": "NFT1155Royalty",
  "abi": [
    {
      "inputs": [],
      "stateMutability": "nonpayable",
      "type": "constructor"
    },
    {
      "anonymous": false,
      "inputs": [
        {
          "indexed": true,
          "internalType": "address",
          "name": "account",
          "type": "address"
        },
        {
          "indexed": true,
          "internalType": "address",
          "name": "operator",
          "type": "address"
        },
        {
          "indexed": false,
          "internalType": "bool",
          "name": "approved",
          "type": "bool"
        }
      ],
      "name": "ApprovalForAll",
      "type": "event"
    },
    {
      "anonymous": false,
      "inputs": [
        {
          "indexed": true,
          "internalType": "address",
          "name": "operator",
          "type": "address"
        },
        {
          "indexed": true,
          "internalType": "address",
          "name": "from",
          "type": "address"
        },
        {
          "indexed": true,
          "internalType": "address",
          "name": "to",
          "type": "address"
        },
        {
          "indexed": false,
          "internalType": "uint256[]",
          "name": "ids",
          "type": "uint256[]"
        },
        {
          "indexed": false,
          "internalType": "uint256[]",
          "name": "values",
          "type": "uint256[]"
        }
      ],
      "name": "TransferBatch",
      "type": "event"
    },
    {
      "anonymous": false,
      "inputs": [
        {
          "indexed": true,
          "internalType": "address",
          "name": "operator",
          "type": "address"
        },
        {
          "indexed": true,
          "internalType": "address",
          "name": "from",
          "type": "address"
        },
        {
          "indexed": true,
          "internalType": "address",
          "name": "to",
          "type": "address"
        },
        {
          "indexed": false,
          "internalType": "uint256",
          "name": "id",
          "type": "uint256"
        },
        {
          "indexed": false,
          "internalType": "uint256",
          "name": "value",
          "type": "uint256"
        }
      ],
      "name": "TransferSingle",
      "type": "event"
    },
    {
      "anonymous": false,
      "inputs": [
        {
          "indexed": false,
          "internalType": "string",
          "name": "value",
          "type": "string"
        },
        {
          "indexed": true,
          "internalType": "uint256",
          "name": "id",
          "type": "uint256"
        }
      ],
      "name": "URI",
      "type": "event"
    },
    {
      "inputs": [
        {
          "internalType": "address",
          "name": "account",
          "type": "address"
        },
        {
          "internalType": "uint256",
          "name": "id",
          "type": "uint256"
        }
      ],
      "name": "balanceOf",
      "outputs": [
        {
          "internalType": "uint256",
          "name": "",
          "type": "uint256"
        }
      ],
      "stateMutability": "view",
      "type": "function"
    },
    {
      "inputs": [
        {
          "internalType": "address[]",
          "name": "accounts",
          "type": "address[]"
        },
        {
          "internalType": "uint256[]",
          "name": "ids",
          "type": "uint256[]"
        }
      ],
      "name": "balanceOfBatch",
      "outputs": [
        {
          "internalType": "uint256[]",
          "name": "",
          "type": "uint256[]"
        }
      ],
      "stateMutability": "view",
      "type": "function"
    },
    {
      "inputs": [
        {
          "internalType": "address",
          "name": "account",
          "type": "address"
        },
        {
          "internalType": "address",
          "name": "operator",
          "type": "address"
        }
      ],
      "name": "isApprovedForAll",
      "outputs": [
        {
          "internalType": "bool",
          "name": "",
          "type": "bool"
        }
      ],
      "stateMutability": "view",
      "type": "function"
    },
    {
      "inputs": [
        {
          "internalType": "uint256",
          "name": "_tokenId",
          "type": "uint256"
        },
        {
          "internalType": "uint256",
          "name": "_salePrice",
          "type": "uint256"
        }
      ],
      "name": "royaltyInfo",
      "outputs": [
        {
          "internalType": "address",
          "name": "",
          "type": "address"
        },
        {
          "internalType": "uint256",
          "name": "",
          "type": "uint256"
        }
      ],
      "stateMutability": "view",
      "type": "function"
    },
    {
      "inputs": [
        {
          "internalType": "address",
          "name": "from",
          "type": "address"
        },
        {
          "internalType": "address",
          "name": "to",
          "type": "address"
        },
        {
          "internalType": "uint256[]",
          "name": "ids",
          "type": "uint256[]"
        },
        {
          "internalType": "uint256[]",
          "name": "amounts",
          "type": "uint256[]"
        },
        {
          "internalType": "bytes",
          "name": "data",
          "type": "bytes"
        }
      ],
      "name": "safeBatchTransferFrom",
      "outputs": [],
      "stateMutability": "nonpayable",
      "type": "function"
    },
    {
      "inputs": [
        {
          "internalType": "address",
          "name": "from",
          "type": "address"
        },
        {
          "internalType": "address",
          "name": "to",
          "type": "address"
        },
        {
          "internalType": "uint256",
          "name": "id",
          "type": "uint256"
        },
        {
          "internalType": "uint256",
          "name": "amount",
          "type": "uint256"
        },
        {
          "internalType": "bytes",
          "name": "data",
          "type": "bytes"
        }
      ],
      "name": "safeTransferFrom",
      "outputs": [],
      "stateMutability": "nonpayable",
      "type": "function"
    },
    {
      "inputs": [
        {
          "internalType": "address",
          "name": "operator",
          "type": "address"
        },
        {
          "internalType": "bool",
          "name": "approved",
          "type": "bool"
        }
      ],
      "name": "setApprovalForAll",
      "outputs": [],
      "stateMutability": "nonpayable",
      "type": "function"
    },
    {
      "inputs": [
        {
          "internalType": "uint256",
          "name": "",
          "type": "uint256"
        }
      ],
      "name": "uri",
      "outputs": [
        {
          "internalType": "string",
          "name": "",
          "type": "string"
        }
      ],
      "stateMutability": "view",
      "type": "function"
    },
    {
      "inputs": [
        {
          "internalType": "address",
          "name": "to",
          "type": "address"
        },
        {
          "internalType": "uint256",
          "name": "tokenId",
          "type": "uint256"
        },
        {
          "internalType": "uint256",
          "name": "amountOfToken",
          "type": "uint256"
        },
        {
          "internalType": "bytes",
          "name": "data",
          "type": "bytes"
        }
      ],
      "name": "mint",
      "outputs": [],
      "stateMutability": "nonpayable",
      "type": "function"
    },
    {
      "inputs": [
        {
          "internalType": "bytes4",
          "name": "interfaceId",
          "type": "bytes4"
        }
      ],
      "name": "supportsInterface",
      "outputs": [
        {
          "internalType": "bool",
          "name": "",
          "type": "bool"
        }
      ],
      "stateMutability": "view",
      "type": "function"
    }
  ],
  "bytecode": "0x60806040523480156200001157600080fd5b506040518060400160405280601f81526020017f68747470733a2f2f6c69616e672e636f6d2f6170692f7b69647d2e6a736f6e0081525062000059816200008260201b60201c565b506200007c6200006e6200009e60201b60201c565b60c8620000a660201b60201c565b62000484565b80600290805190602001906200009a92919062000254565b5050565b600033905090565b620000b66200024a60201b60201c565b6bffffffffffffffffffffffff16816bffffffffffffffffffffffff16111562000117576040517f08c379a00000000000000000000000000000000000000000000000000000000081526004016200010e906200038b565b60405180910390fd5b600073ffffffffffffffffffffffffffffffffffffffff168273ffffffffffffffffffffffffffffffffffffffff1614156200018a576040517f08c379a00000000000000000000000000000000000000000000000000000000081526004016200018190620003fd565b60405180910390fd5b60405180604001604052808373ffffffffffffffffffffffffffffffffffffffff168152602001826bffffffffffffffffffffffff16815250600360008201518160000160006101000a81548173ffffffffffffffffffffffffffffffffffffffff021916908373ffffffffffffffffffffffffffffffffffffffff16021790555060208201518160000160146101000a8154816bffffffffffffffffffffffff02191690836bffffffffffffffffffffffff1602179055509050505050565b6000612710905090565b82805462000262906200044e565b90600052602060002090601f016020900481019282620002865760008555620002d2565b82601f10620002a157805160ff1916838001178555620002d2565b82800160010185558215620002d2579182015b82811115620002d1578251825591602001919060010190620002b4565b5b509050620002e19190620002e5565b5090565b5b8082111562000300576000816000905550600101620002e6565b5090565b600082825260208201905092915050565b7f455243323938313a20726f79616c7479206665652077696c6c2065786365656460008201527f2073616c65507269636500000000000000000000000000000000000000000000602082015250565b600062000373602a8362000304565b9150620003808262000315565b604082019050919050565b60006020820190508181036000830152620003a68162000364565b9050919050565b7f455243323938313a20696e76616c696420726563656976657200000000000000600082015250565b6000620003e560198362000304565b9150620003f282620003ad565b602082019050919050565b600060208201905081810360008301526200041881620003d6565b9050919050565b7f4e487b7100000000000000000000000000000000000000000000000000000000600052602260045260246000fd5b600060028204905060018216806200046757607f821691505b602082108114156200047e576200047d6200041f565b5b50919050565b612c5680620004946000396000f3fe608060405234801561001057600080fd5b506004361061009d5760003560e01c80634e1273f4116100665780634e1273f41461017f578063731133e9146101af578063a22cb465146101cb578063e985e9c5146101e7578063f242432a146102175761009d565b8062fdd58e146100a257806301ffc9a7146100d25780630e89341c146101025780632a55205a146101325780632eb2c2d614610163575b600080fd5b6100bc60048036038101906100b79190611812565b610233565b6040516100c99190611861565b60405180910390f35b6100ec60048036038101906100e791906118d4565b6102fc565b6040516100f9919061191c565b60405180910390f35b61011c60048036038101906101179190611937565b61030e565b60405161012991906119fd565b60405180910390f35b61014c60048036038101906101479190611a1f565b6103a2565b60405161015a929190611a6e565b60405180910390f35b61017d60048036038101906101789190611c94565b61058d565b005b61019960048036038101906101949190611e26565b61062e565b6040516101a69190611f5c565b60405180910390f35b6101c960048036038101906101c49190611f7e565b610747565b005b6101e560048036038101906101e0919061202d565b610759565b005b61020160048036038101906101fc919061206d565b61076f565b60405161020e919061191c565b60405180910390f35b610231600480360381019061022c91906120ad565b610803565b005b60008073ffffffffffffffffffffffffffffffffffffffff168373ffffffffffffffffffffffffffffffffffffffff1614156102a4576040517f08c379a000000000000000000000000000000000000000000000000000000000815260040161029b906121b6565b60405180910390fd5b60008083815260200190815260200160002060008473ffffffffffffffffffffffffffffffffffffffff1673ffffffffffffffffffffffffffffffffffffffff16815260200190815260200160002054905092915050565b6000610307826108a4565b9050919050565b60606002805461031d90612205565b80601f016020809104026020016040519081016040528092919081815260200182805461034990612205565b80156103965780601f1061036b57610100808354040283529160200191610396565b820191906000526020600020905b81548152906001019060200180831161037957829003601f168201915b50505050509050919050565b6000806000600460008681526020019081526020016000206040518060400160405290816000820160009054906101000a900473ffffffffffffffffffffffffffffffffffffffff1673ffffffffffffffffffffffffffffffffffffffff1673ffffffffffffffffffffffffffffffffffffffff1681526020016000820160149054906101000a90046bffffffffffffffffffffffff166bffffffffffffffffffffffff166bffffffffffffffffffffffff16815250509050600073ffffffffffffffffffffffffffffffffffffffff16816000015173ffffffffffffffffffffffffffffffffffffffff1614156105385760036040518060400160405290816000820160009054906101000a900473ffffffffffffffffffffffffffffffffffffffff1673ffffffffffffffffffffffffffffffffffffffff1673ffffffffffffffffffffffffffffffffffffffff1681526020016000820160149054906101000a90046bffffffffffffffffffffffff166bffffffffffffffffffffffff166bffffffffffffffffffffffff168152505090505b600061054261091e565b6bffffffffffffffffffffffff1682602001516bffffffffffffffffffffffff168661056e9190612266565b61057891906122ef565b90508160000151819350935050509250929050565b610595610928565b73ffffffffffffffffffffffffffffffffffffffff168573ffffffffffffffffffffffffffffffffffffffff1614806105db57506105da856105d5610928565b61076f565b5b61061a576040517f08c379a000000000000000000000000000000000000000000000000000000000815260040161061190612392565b60405180910390fd5b6106278585858585610930565b5050505050565b60608151835114610674576040517f08c379a000000000000000000000000000000000000000000000000000000000815260040161066b90612424565b60405180910390fd5b6000835167ffffffffffffffff81111561069157610690611a9c565b5b6040519080825280602002602001820160405280156106bf5781602001602082028036833780820191505090505b50905060005b845181101561073c5761070c8582815181106106e4576106e3612444565b5b60200260200101518583815181106106ff576106fe612444565b5b6020026020010151610233565b82828151811061071f5761071e612444565b5b6020026020010181815250508061073590612473565b90506106c5565b508091505092915050565b61075384848484610c44565b50505050565b61076b610764610928565b8383610dda565b5050565b6000600160008473ffffffffffffffffffffffffffffffffffffffff1673ffffffffffffffffffffffffffffffffffffffff16815260200190815260200160002060008373ffffffffffffffffffffffffffffffffffffffff1673ffffffffffffffffffffffffffffffffffffffff16815260200190815260200160002060009054906101000a900460ff16905092915050565b61080b610928565b73ffffffffffffffffffffffffffffffffffffffff168573ffffffffffffffffffffffffffffffffffffffff16148061085157506108508561084b610928565b61076f565b5b610890576040517f08c379a00000000000000000000000000000000000000000000000000000000081526004016108879061252e565b60405180910390fd5b61089d8585858585610f47565b5050505050565b60007f2a55205a000000000000000000000000000000000000000000000000000000007bffffffffffffffffffffffffffffffffffffffffffffffffffffffff1916827bffffffffffffffffffffffffffffffffffffffffffffffffffffffff191614806109175750610916826111c9565b5b9050919050565b6000612710905090565b600033905090565b8151835114610974576040517f08c379a000000000000000000000000000000000000000000000000000000000815260040161096b906125c0565b60405180910390fd5b600073ffffffffffffffffffffffffffffffffffffffff168473ffffffffffffffffffffffffffffffffffffffff1614156109e4576040517f08c379a00000000000000000000000000000000000000000000000000000000081526004016109db90612652565b60405180910390fd5b60006109ee610928565b90506109fe8187878787876112ab565b60005b8451811015610baf576000858281518110610a1f57610a1e612444565b5b602002602001015190506000858381518110610a3e57610a3d612444565b5b60200260200101519050600080600084815260200190815260200160002060008b73ffffffffffffffffffffffffffffffffffffffff1673ffffffffffffffffffffffffffffffffffffffff16815260200190815260200160002054905081811015610adf576040517f08c379a0000000000000000000000000000000000000000000000000000000008152600401610ad6906126e4565b60405180910390fd5b81810360008085815260200190815260200160002060008c73ffffffffffffffffffffffffffffffffffffffff1673ffffffffffffffffffffffffffffffffffffffff168152602001908152602001600020819055508160008085815260200190815260200160002060008b73ffffffffffffffffffffffffffffffffffffffff1673ffffffffffffffffffffffffffffffffffffffff1681526020019081526020016000206000828254610b949190612704565b9250508190555050505080610ba890612473565b9050610a01565b508473ffffffffffffffffffffffffffffffffffffffff168673ffffffffffffffffffffffffffffffffffffffff168273ffffffffffffffffffffffffffffffffffffffff167f4a39dc06d4c0dbc64b70af90fd698a233a518aa5d07e595d983b8c0526c8f7fb8787604051610c2692919061275a565b60405180910390a4610c3c8187878787876112b3565b505050505050565b600073ffffffffffffffffffffffffffffffffffffffff168473ffffffffffffffffffffffffffffffffffffffff161415610cb4576040517f08c379a0000000000000000000000000000000000000000000000000000000008152600401610cab90612803565b60405180910390fd5b6000610cbe610928565b9050610cdf81600087610cd08861148b565b610cd98861148b565b876112ab565b8260008086815260200190815260200160002060008773ffffffffffffffffffffffffffffffffffffffff1673ffffffffffffffffffffffffffffffffffffffff1681526020019081526020016000206000828254610d3e9190612704565b925050819055508473ffffffffffffffffffffffffffffffffffffffff16600073ffffffffffffffffffffffffffffffffffffffff168273ffffffffffffffffffffffffffffffffffffffff167fc3d58168c5ae7397731d063d5bbf3d657854427343f4c083240f7aacaa2d0f628787604051610dbc929190612823565b60405180910390a4610dd381600087878787611505565b5050505050565b8173ffffffffffffffffffffffffffffffffffffffff168373ffffffffffffffffffffffffffffffffffffffff161415610e49576040517f08c379a0000000000000000000000000000000000000000000000000000000008152600401610e40906128be565b60405180910390fd5b80600160008573ffffffffffffffffffffffffffffffffffffffff1673ffffffffffffffffffffffffffffffffffffffff16815260200190815260200160002060008473ffffffffffffffffffffffffffffffffffffffff1673ffffffffffffffffffffffffffffffffffffffff16815260200190815260200160002060006101000a81548160ff0219169083151502179055508173ffffffffffffffffffffffffffffffffffffffff168373ffffffffffffffffffffffffffffffffffffffff167f17307eab39ab6107e8899845ad3d59bd9653f200f220920489ca2b5937696c3183604051610f3a919061191c565b60405180910390a3505050565b600073ffffffffffffffffffffffffffffffffffffffff168473ffffffffffffffffffffffffffffffffffffffff161415610fb7576040517f08c379a0000000000000000000000000000000000000000000000000000000008152600401610fae90612652565b60405180910390fd5b6000610fc1610928565b9050610fe1818787610fd28861148b565b610fdb8861148b565b876112ab565b600080600086815260200190815260200160002060008873ffffffffffffffffffffffffffffffffffffffff1673ffffffffffffffffffffffffffffffffffffffff16815260200190815260200160002054905083811015611078576040517f08c379a000000000000000000000000000000000000000000000000000000000815260040161106f906126e4565b60405180910390fd5b83810360008087815260200190815260200160002060008973ffffffffffffffffffffffffffffffffffffffff1673ffffffffffffffffffffffffffffffffffffffff168152602001908152602001600020819055508360008087815260200190815260200160002060008873ffffffffffffffffffffffffffffffffffffffff1673ffffffffffffffffffffffffffffffffffffffff168152602001908152602001600020600082825461112d9190612704565b925050819055508573ffffffffffffffffffffffffffffffffffffffff168773ffffffffffffffffffffffffffffffffffffffff168373ffffffffffffffffffffffffffffffffffffffff167fc3d58168c5ae7397731d063d5bbf3d657854427343f4c083240f7aacaa2d0f6288886040516111aa929190612823565b60405180910390a46111c0828888888888611505565b50505050505050565b60007fd9b67a26000000000000000000000000000000000000000000000000000000007bffffffffffffffffffffffffffffffffffffffffffffffffffffffff1916827bffffffffffffffffffffffffffffffffffffffffffffffffffffffff1916148061129457507f0e89341c000000000000000000000000000000000000000000000000000000007bffffffffffffffffffffffffffffffffffffffffffffffffffffffff1916827bffffffffffffffffffffffffffffffffffffffffffffffffffffffff1916145b806112a457506112a3826116dd565b5b9050919050565b505050505050565b6112d28473ffffffffffffffffffffffffffffffffffffffff16611747565b15611483578373ffffffffffffffffffffffffffffffffffffffff1663bc197c8187878686866040518663ffffffff1660e01b8152600401611318959493929190612933565b6020604051808303816000875af192505050801561135457506040513d601f19601f8201168201806040525081019061135191906129b0565b60015b6113fa576113606129ea565b806308c379a014156113bd5750611375612a0c565b8061138057506113bf565b806040517f08c379a00000000000000000000000000000000000000000000000000000000081526004016113b491906119fd565b60405180910390fd5b505b6040517f08c379a00000000000000000000000000000000000000000000000000000000081526004016113f190612b14565b60405180910390fd5b63bc197c8160e01b7bffffffffffffffffffffffffffffffffffffffffffffffffffffffff1916817bffffffffffffffffffffffffffffffffffffffffffffffffffffffff191614611481576040517f08c379a000000000000000000000000000000000000000000000000000000000815260040161147890612ba6565b60405180910390fd5b505b505050505050565b60606000600167ffffffffffffffff8111156114aa576114a9611a9c565b5b6040519080825280602002602001820160405280156114d85781602001602082028036833780820191505090505b50905082816000815181106114f0576114ef612444565b5b60200260200101818152505080915050919050565b6115248473ffffffffffffffffffffffffffffffffffffffff16611747565b156116d5578373ffffffffffffffffffffffffffffffffffffffff1663f23a6e6187878686866040518663ffffffff1660e01b815260040161156a959493929190612bc6565b6020604051808303816000875af19250505080156115a657506040513d601f19601f820116820180604052508101906115a391906129b0565b60015b61164c576115b26129ea565b806308c379a0141561160f57506115c7612a0c565b806115d25750611611565b806040517f08c379a000000000000000000000000000000000000000000000000000000000815260040161160691906119fd565b60405180910390fd5b505b6040517f08c379a000000000000000000000000000000000000000000000000000000000815260040161164390612b14565b60405180910390fd5b63f23a6e6160e01b7bffffffffffffffffffffffffffffffffffffffffffffffffffffffff1916817bffffffffffffffffffffffffffffffffffffffffffffffffffffffff1916146116d3576040517f08c379a00000000000000000000000000000000000000000000000000000000081526004016116ca90612ba6565b60405180910390fd5b505b505050505050565b60007f01ffc9a7000000000000000000000000000000000000000000000000000000007bffffffffffffffffffffffffffffffffffffffffffffffffffffffff1916827bffffffffffffffffffffffffffffffffffffffffffffffffffffffff1916149050919050565b6000808273ffffffffffffffffffffffffffffffffffffffff163b119050919050565b6000604051905090565b600080fd5b600080fd5b600073ffffffffffffffffffffffffffffffffffffffff82169050919050565b60006117a98261177e565b9050919050565b6117b98161179e565b81146117c457600080fd5b50565b6000813590506117d6816117b0565b92915050565b6000819050919050565b6117ef816117dc565b81146117fa57600080fd5b50565b60008135905061180c816117e6565b92915050565b6000806040838503121561182957611828611774565b5b6000611837858286016117c7565b9250506020611848858286016117fd565b9150509250929050565b61185b816117dc565b82525050565b60006020820190506118766000830184611852565b92915050565b60007fffffffff0000000000000000000000000000000000000000000000000000000082169050919050565b6118b18161187c565b81146118bc57600080fd5b50565b6000813590506118ce816118a8565b92915050565b6000602082840312156118ea576118e9611774565b5b60006118f8848285016118bf565b91505092915050565b60008115159050919050565b61191681611901565b82525050565b6000602082019050611931600083018461190d565b92915050565b60006020828403121561194d5761194c611774565b5b600061195b848285016117fd565b91505092915050565b600081519050919050565b600082825260208201905092915050565b60005b8381101561199e578082015181840152602081019050611983565b838111156119ad576000848401525b50505050565b6000601f19601f8301169050919050565b60006119cf82611964565b6119d9818561196f565b93506119e9818560208601611980565b6119f2816119b3565b840191505092915050565b60006020820190508181036000830152611a1781846119c4565b905092915050565b60008060408385031215611a3657611a35611774565b5b6000611a44858286016117fd565b9250506020611a55858286016117fd565b9150509250929050565b611a688161179e565b82525050565b6000604082019050611a836000830185611a5f565b611a906020830184611852565b9392505050565b600080fd5b7f4e487b7100000000000000000000000000000000000000000000000000000000600052604160045260246000fd5b611ad4826119b3565b810181811067ffffffffffffffff82111715611af357611af2611a9c565b5b80604052505050565b6000611b0661176a565b9050611b128282611acb565b919050565b600067ffffffffffffffff821115611b3257611b31611a9c565b5b602082029050602081019050919050565b600080fd5b6000611b5b611b5684611b17565b611afc565b90508083825260208201905060208402830185811115611b7e57611b7d611b43565b5b835b81811015611ba75780611b9388826117fd565b845260208401935050602081019050611b80565b5050509392505050565b600082601f830112611bc657611bc5611a97565b5b8135611bd6848260208601611b48565b91505092915050565b600080fd5b600067ffffffffffffffff821115611bff57611bfe611a9c565b5b611c08826119b3565b9050602081019050919050565b82818337600083830152505050565b6000611c37611c3284611be4565b611afc565b905082815260208101848484011115611c5357611c52611bdf565b5b611c5e848285611c15565b509392505050565b600082601f830112611c7b57611c7a611a97565b5b8135611c8b848260208601611c24565b91505092915050565b600080600080600060a08688031215611cb057611caf611774565b5b6000611cbe888289016117c7565b9550506020611ccf888289016117c7565b945050604086013567ffffffffffffffff811115611cf057611cef611779565b5b611cfc88828901611bb1565b935050606086013567ffffffffffffffff811115611d1d57611d1c611779565b5b611d2988828901611bb1565b925050608086013567ffffffffffffffff811115611d4a57611d49611779565b5b611d5688828901611c66565b9150509295509295909350565b600067ffffffffffffffff821115611d7e57611d7d611a9c565b5b602082029050602081019050919050565b6000611da2611d9d84611d63565b611afc565b90508083825260208201905060208402830185811115611dc557611dc4611b43565b5b835b81811015611dee5780611dda88826117c7565b845260208401935050602081019050611dc7565b5050509392505050565b600082601f830112611e0d57611e0c611a97565b5b8135611e1d848260208601611d8f565b91505092915050565b60008060408385031215611e3d57611e3c611774565b5b600083013567ffffffffffffffff811115611e5b57611e5a611779565b5b611e6785828601611df8565b925050602083013567ffffffffffffffff811115611e8857611e87611779565b5b611e9485828601611bb1565b9150509250929050565b600081519050919050565b600082825260208201905092915050565b6000819050602082019050919050565b611ed3816117dc565b82525050565b6000611ee58383611eca565b60208301905092915050565b6000602082019050919050565b6000611f0982611e9e565b611f138185611ea9565b9350611f1e83611eba565b8060005b83811015611f4f578151611f368882611ed9565b9750611f4183611ef1565b925050600181019050611f22565b5085935050505092915050565b60006020820190508181036000830152611f768184611efe565b905092915050565b60008060008060808587031215611f9857611f97611774565b5b6000611fa6878288016117c7565b9450506020611fb7878288016117fd565b9350506040611fc8878288016117fd565b925050606085013567ffffffffffffffff811115611fe957611fe8611779565b5b611ff587828801611c66565b91505092959194509250565b61200a81611901565b811461201557600080fd5b50565b60008135905061202781612001565b92915050565b6000806040838503121561204457612043611774565b5b6000612052858286016117c7565b925050602061206385828601612018565b9150509250929050565b6000806040838503121561208457612083611774565b5b6000612092858286016117c7565b92505060206120a3858286016117c7565b9150509250929050565b600080600080600060a086880312156120c9576120c8611774565b5b60006120d7888289016117c7565b95505060206120e8888289016117c7565b94505060406120f9888289016117fd565b935050606061210a888289016117fd565b925050608086013567ffffffffffffffff81111561212b5761212a611779565b5b61213788828901611c66565b9150509295509295909350565b7f455243313135353a2062616c616e636520717565727920666f7220746865207a60008201527f65726f2061646472657373000000000000000000000000000000000000000000602082015250565b60006121a0602b8361196f565b91506121ab82612144565b604082019050919050565b600060208201905081810360008301526121cf81612193565b9050919050565b7f4e487b7100000000000000000000000000000000000000000000000000000000600052602260045260246000fd5b6000600282049050600182168061221d57607f821691505b60208210811415612231576122306121d6565b5b50919050565b7f4e487b7100000000000000000000000000000000000000000000000000000000600052601160045260246000fd5b6000612271826117dc565b915061227c836117dc565b9250817fffffffffffffffffffffffffffffffffffffffffffffffffffffffffffffffff04831182151516156122b5576122b4612237565b5b828202905092915050565b7f4e487b7100000000000000000000000000000000000000000000000000000000600052601260045260246000fd5b60006122fa826117dc565b9150612305836117dc565b925082612315576123146122c0565b5b828204905092915050565b7f455243313135353a207472616e736665722063616c6c6572206973206e6f742060008201527f6f776e6572206e6f7220617070726f7665640000000000000000000000000000602082015250565b600061237c60328361196f565b915061238782612320565b604082019050919050565b600060208201905081810360008301526123ab8161236f565b9050919050565b7f455243313135353a206163636f756e747320616e6420696473206c656e67746860008201527f206d69736d617463680000000000000000000000000000000000000000000000602082015250565b600061240e60298361196f565b9150612419826123b2565b604082019050919050565b6000602082019050818103600083015261243d81612401565b9050919050565b7f4e487b7100000000000000000000000000000000000000000000000000000000600052603260045260246000fd5b600061247e826117dc565b91507fffffffffffffffffffffffffffffffffffffffffffffffffffffffffffffffff8214156124b1576124b0612237565b5b600182019050919050565b7f455243313135353a2063616c6c6572206973206e6f74206f776e6572206e6f7260008201527f20617070726f7665640000000000000000000000000000000000000000000000602082015250565b600061251860298361196f565b9150612523826124bc565b604082019050919050565b600060208201905081810360008301526125478161250b565b9050919050565b7f455243313135353a2069647320616e6420616d6f756e7473206c656e6774682060008201527f6d69736d61746368000000000000000000000000000000000000000000000000602082015250565b60006125aa60288361196f565b91506125b58261254e565b604082019050919050565b600060208201905081810360008301526125d98161259d565b9050919050565b7f455243313135353a207472616e7366657220746f20746865207a65726f20616460008201527f6472657373000000000000000000000000000000000000000000000000000000602082015250565b600061263c60258361196f565b9150612647826125e0565b604082019050919050565b6000602082019050818103600083015261266b8161262f565b9050919050565b7f455243313135353a20696e73756666696369656e742062616c616e636520666f60008201527f72207472616e7366657200000000000000000000000000000000000000000000602082015250565b60006126ce602a8361196f565b91506126d982612672565b604082019050919050565b600060208201905081810360008301526126fd816126c1565b9050919050565b600061270f826117dc565b915061271a836117dc565b9250827fffffffffffffffffffffffffffffffffffffffffffffffffffffffffffffffff0382111561274f5761274e612237565b5b828201905092915050565b600060408201905081810360008301526127748185611efe565b905081810360208301526127888184611efe565b90509392505050565b7f455243313135353a206d696e7420746f20746865207a65726f2061646472657360008201527f7300000000000000000000000000000000000000000000000000000000000000602082015250565b60006127ed60218361196f565b91506127f882612791565b604082019050919050565b6000602082019050818103600083015261281c816127e0565b9050919050565b60006040820190506128386000830185611852565b6128456020830184611852565b9392505050565b7f455243313135353a2073657474696e6720617070726f76616c2073746174757360008201527f20666f722073656c660000000000000000000000000000000000000000000000602082015250565b60006128a860298361196f565b91506128b38261284c565b604082019050919050565b600060208201905081810360008301526128d78161289b565b9050919050565b600081519050919050565b600082825260208201905092915050565b6000612905826128de565b61290f81856128e9565b935061291f818560208601611980565b612928816119b3565b840191505092915050565b600060a0820190506129486000830188611a5f565b6129556020830187611a5f565b81810360408301526129678186611efe565b9050818103606083015261297b8185611efe565b9050818103608083015261298f81846128fa565b90509695505050505050565b6000815190506129aa816118a8565b92915050565b6000602082840312156129c6576129c5611774565b5b60006129d48482850161299b565b91505092915050565b60008160e01c9050919050565b600060033d1115612a095760046000803e612a066000516129dd565b90505b90565b600060443d1015612a1c57612a9f565b612a2461176a565b60043d036004823e80513d602482011167ffffffffffffffff82111715612a4c575050612a9f565b808201805167ffffffffffffffff811115612a6a5750505050612a9f565b80602083010160043d038501811115612a87575050505050612a9f565b612a9682602001850186611acb565b82955050505050505b90565b7f455243313135353a207472616e7366657220746f206e6f6e204552433131353560008201527f526563656976657220696d706c656d656e746572000000000000000000000000602082015250565b6000612afe60348361196f565b9150612b0982612aa2565b604082019050919050565b60006020820190508181036000830152612b2d81612af1565b9050919050565b7f455243313135353a204552433131353552656365697665722072656a6563746560008201527f6420746f6b656e73000000000000000000000000000000000000000000000000602082015250565b6000612b9060288361196f565b9150612b9b82612b34565b604082019050919050565b60006020820190508181036000830152612bbf81612b83565b9050919050565b600060a082019050612bdb6000830188611a5f565b612be86020830187611a5f565b612bf56040830186611852565b612c026060830185611852565b8181036080830152612c1481846128fa565b9050969550505050505056fea264697066735822122073f7c94b06a2396d5484ef1b1451599ba44617cd1cde1c19adbab15199956e3c64736f6c634300080c0033",
  "immutableReferences": {},
  "source": "// SPDX-License-Identifier: MIT\r\n\r\npragma solidity >=0.7.0 <0.9.0;\r\n\r\nimport \"@openzeppelin/contracts/token/common/ERC2981.sol\";\r\nimport \"@openzeppelin/contracts/token/ERC1155/ERC1155.sol\";\r\n\r\ncontract NFT1155Royalty is ERC1155, ERC2981{\r\n\r\n  constructor() ERC1155(\"https://liang.com/api/{id}.json\"){\r\n\r\n    //set loyalty 2% equal to 200 basis points\r\n    _setDefaultRoyalty(_msgSender(), 200);\r\n  }\r\n\r\n  function mint(address to, uint256 tokenId, uint256 amountOfToken, bytes memory data) public {\r\n    _mint(to, tokenId, amountOfToken, data);\r\n  }\r\n\r\n  //This function is to overide supportInterface function of ERC1155 and ERC2981l\r\n  function supportsInterface(bytes4 interfaceId) public view virtual override(ERC1155, ERC2981) returns (bool) {\r\n      return super.supportsInterface(interfaceId);\r\n  }\r\n\r\n}\r\n",
  "sourcePath": "D:\\Users\\yesla\\Desktop\\solidityworkspace\\nft_royalty\\contracts\\NFT1155Royalty.sol",
  "compiler": {
    "name": "solc",
    "version": "0.8.12+commit.f00d7308.Emscripten.clang"
  },
  "schemaVersion": "3.4.6",
  "updatedAt": "2022-03-21T06:33:08.937Z",
  "devdoc": {
    "kind": "dev",
    "methods": {
      "balanceOf(address,uint256)": {
        "details": "See {IERC1155-balanceOf}. Requirements: - `account` cannot be the zero address."
      },
      "balanceOfBatch(address[],uint256[])": {
        "details": "See {IERC1155-balanceOfBatch}. Requirements: - `accounts` and `ids` must have the same length."
      },
      "isApprovedForAll(address,address)": {
        "details": "See {IERC1155-isApprovedForAll}."
      },
      "royaltyInfo(uint256,uint256)": {
        "details": "Returns how much royalty is owed and to whom, based on a sale price that may be denominated in any unit of exchange. The royalty amount is denominated and should be payed in that same unit of exchange."
      },
      "safeBatchTransferFrom(address,address,uint256[],uint256[],bytes)": {
        "details": "See {IERC1155-safeBatchTransferFrom}."
      },
      "safeTransferFrom(address,address,uint256,uint256,bytes)": {
        "details": "See {IERC1155-safeTransferFrom}."
      },
      "setApprovalForAll(address,bool)": {
        "details": "See {IERC1155-setApprovalForAll}."
      },
      "uri(uint256)": {
        "details": "See {IERC1155MetadataURI-uri}. This implementation returns the same URI for *all* token types. It relies on the token type ID substitution mechanism https://eips.ethereum.org/EIPS/eip-1155#metadata[defined in the EIP]. Clients calling this function must replace the `\\{id\\}` substring with the actual token type ID."
      }
    },
    "version": 1
  },
  "userdoc": {
    "kind": "user",
    "methods": {},
    "version": 1
  }
}