{
  "contractName": "NFT721Royalty",
  "abi": [
    {
      "inputs": [],
      "stateMutability": "nonpayable",
      "type": "constructor"
    },
    {
      "anonymous": false,
      "inputs": [
        {
          "indexed": true,
          "internalType": "address",
          "name": "owner",
          "type": "address"
        },
        {
          "indexed": true,
          "internalType": "address",
          "name": "approved",
          "type": "address"
        },
        {
          "indexed": true,
          "internalType": "uint256",
          "name": "tokenId",
          "type": "uint256"
        }
      ],
      "name": "Approval",
      "type": "event"
    },
    {
      "anonymous": false,
      "inputs": [
        {
          "indexed": true,
          "internalType": "address",
          "name": "owner",
          "type": "address"
        },
        {
          "indexed": true,
          "internalType": "address",
          "name": "operator",
          "type": "address"
        },
        {
          "indexed": false,
          "internalType": "bool",
          "name": "approved",
          "type": "bool"
        }
      ],
      "name": "ApprovalForAll",
      "type": "event"
    },
    {
      "anonymous": false,
      "inputs": [
        {
          "indexed": true,
          "internalType": "address",
          "name": "from",
          "type": "address"
        },
        {
          "indexed": true,
          "internalType": "address",
          "name": "to",
          "type": "address"
        },
        {
          "indexed": true,
          "internalType": "uint256",
          "name": "tokenId",
          "type": "uint256"
        }
      ],
      "name": "Transfer",
      "type": "event"
    },
    {
      "inputs": [
        {
          "internalType": "address",
          "name": "to",
          "type": "address"
        },
        {
          "internalType": "uint256",
          "name": "tokenId",
          "type": "uint256"
        }
      ],
      "name": "approve",
      "outputs": [],
      "stateMutability": "nonpayable",
      "type": "function"
    },
    {
      "inputs": [
        {
          "internalType": "address",
          "name": "owner",
          "type": "address"
        }
      ],
      "name": "balanceOf",
      "outputs": [
        {
          "internalType": "uint256",
          "name": "",
          "type": "uint256"
        }
      ],
      "stateMutability": "view",
      "type": "function"
    },
    {
      "inputs": [
        {
          "internalType": "uint256",
          "name": "tokenId",
          "type": "uint256"
        }
      ],
      "name": "getApproved",
      "outputs": [
        {
          "internalType": "address",
          "name": "",
          "type": "address"
        }
      ],
      "stateMutability": "view",
      "type": "function"
    },
    {
      "inputs": [
        {
          "internalType": "address",
          "name": "owner",
          "type": "address"
        },
        {
          "internalType": "address",
          "name": "operator",
          "type": "address"
        }
      ],
      "name": "isApprovedForAll",
      "outputs": [
        {
          "internalType": "bool",
          "name": "",
          "type": "bool"
        }
      ],
      "stateMutability": "view",
      "type": "function"
    },
    {
      "inputs": [],
      "name": "name",
      "outputs": [
        {
          "internalType": "string",
          "name": "",
          "type": "string"
        }
      ],
      "stateMutability": "view",
      "type": "function"
    },
    {
      "inputs": [
        {
          "internalType": "uint256",
          "name": "tokenId",
          "type": "uint256"
        }
      ],
      "name": "ownerOf",
      "outputs": [
        {
          "internalType": "address",
          "name": "",
          "type": "address"
        }
      ],
      "stateMutability": "view",
      "type": "function"
    },
    {
      "inputs": [
        {
          "internalType": "uint256",
          "name": "_tokenId",
          "type": "uint256"
        },
        {
          "internalType": "uint256",
          "name": "_salePrice",
          "type": "uint256"
        }
      ],
      "name": "royaltyInfo",
      "outputs": [
        {
          "internalType": "address",
          "name": "",
          "type": "address"
        },
        {
          "internalType": "uint256",
          "name": "",
          "type": "uint256"
        }
      ],
      "stateMutability": "view",
      "type": "function"
    },
    {
      "inputs": [
        {
          "internalType": "address",
          "name": "from",
          "type": "address"
        },
        {
          "internalType": "address",
          "name": "to",
          "type": "address"
        },
        {
          "internalType": "uint256",
          "name": "tokenId",
          "type": "uint256"
        }
      ],
      "name": "safeTransferFrom",
      "outputs": [],
      "stateMutability": "nonpayable",
      "type": "function"
    },
    {
      "inputs": [
        {
          "internalType": "address",
          "name": "from",
          "type": "address"
        },
        {
          "internalType": "address",
          "name": "to",
          "type": "address"
        },
        {
          "internalType": "uint256",
          "name": "tokenId",
          "type": "uint256"
        },
        {
          "internalType": "bytes",
          "name": "_data",
          "type": "bytes"
        }
      ],
      "name": "safeTransferFrom",
      "outputs": [],
      "stateMutability": "nonpayable",
      "type": "function"
    },
    {
      "inputs": [
        {
          "internalType": "address",
          "name": "operator",
          "type": "address"
        },
        {
          "internalType": "bool",
          "name": "approved",
          "type": "bool"
        }
      ],
      "name": "setApprovalForAll",
      "outputs": [],
      "stateMutability": "nonpayable",
      "type": "function"
    },
    {
      "inputs": [],
      "name": "symbol",
      "outputs": [
        {
          "internalType": "string",
          "name": "",
          "type": "string"
        }
      ],
      "stateMutability": "view",
      "type": "function"
    },
    {
      "inputs": [
        {
          "internalType": "uint256",
          "name": "tokenId",
          "type": "uint256"
        }
      ],
      "name": "tokenURI",
      "outputs": [
        {
          "internalType": "string",
          "name": "",
          "type": "string"
        }
      ],
      "stateMutability": "view",
      "type": "function"
    },
    {
      "inputs": [
        {
          "internalType": "address",
          "name": "from",
          "type": "address"
        },
        {
          "internalType": "address",
          "name": "to",
          "type": "address"
        },
        {
          "internalType": "uint256",
          "name": "tokenId",
          "type": "uint256"
        }
      ],
      "name": "transferFrom",
      "outputs": [],
      "stateMutability": "nonpayable",
      "type": "function"
    },
    {
      "inputs": [
        {
          "internalType": "address",
          "name": "to",
          "type": "address"
        },
        {
          "internalType": "uint256",
          "name": "tokenId",
          "type": "uint256"
        }
      ],
      "name": "mint",
      "outputs": [],
      "stateMutability": "nonpayable",
      "type": "function"
    },
    {
      "inputs": [
        {
          "internalType": "bytes4",
          "name": "interfaceId",
          "type": "bytes4"
        }
      ],
      "name": "supportsInterface",
      "outputs": [
        {
          "internalType": "bool",
          "name": "",
          "type": "bool"
        }
      ],
      "stateMutability": "view",
      "type": "function"
    }
  ],
  "bytecode": "0x60806040523480156200001157600080fd5b506040518060400160405280600881526020017f4c69616e674e66740000000000000000000000000000000000000000000000008152506040518060400160405280600481526020017f4c4e46540000000000000000000000000000000000000000000000000000000081525081600090805190602001906200009692919062000290565b508060019080519060200190620000af92919062000290565b505050620000d4620000c6620000da60201b60201c565b60c8620000e260201b60201c565b620004c0565b600033905090565b620000f26200028660201b60201c565b6bffffffffffffffffffffffff16816bffffffffffffffffffffffff16111562000153576040517f08c379a00000000000000000000000000000000000000000000000000000000081526004016200014a90620003c7565b60405180910390fd5b600073ffffffffffffffffffffffffffffffffffffffff168273ffffffffffffffffffffffffffffffffffffffff161415620001c6576040517f08c379a0000000000000000000000000000000000000000000000000000000008152600401620001bd9062000439565b60405180910390fd5b60405180604001604052808373ffffffffffffffffffffffffffffffffffffffff168152602001826bffffffffffffffffffffffff16815250600660008201518160000160006101000a81548173ffffffffffffffffffffffffffffffffffffffff021916908373ffffffffffffffffffffffffffffffffffffffff16021790555060208201518160000160146101000a8154816bffffffffffffffffffffffff02191690836bffffffffffffffffffffffff1602179055509050505050565b6000612710905090565b8280546200029e906200048a565b90600052602060002090601f016020900481019282620002c257600085556200030e565b82601f10620002dd57805160ff19168380011785556200030e565b828001600101855582156200030e579182015b828111156200030d578251825591602001919060010190620002f0565b5b5090506200031d919062000321565b5090565b5b808211156200033c57600081600090555060010162000322565b5090565b600082825260208201905092915050565b7f455243323938313a20726f79616c7479206665652077696c6c2065786365656460008201527f2073616c65507269636500000000000000000000000000000000000000000000602082015250565b6000620003af602a8362000340565b9150620003bc8262000351565b604082019050919050565b60006020820190508181036000830152620003e281620003a0565b9050919050565b7f455243323938313a20696e76616c696420726563656976657200000000000000600082015250565b60006200042160198362000340565b91506200042e82620003e9565b602082019050919050565b60006020820190508181036000830152620004548162000412565b9050919050565b7f4e487b7100000000000000000000000000000000000000000000000000000000600052602260045260246000fd5b60006002820490506001821680620004a357607f821691505b60208210811415620004ba57620004b96200045b565b5b50919050565b612acf80620004d06000396000f3fe608060405234801561001057600080fd5b50600436106100f55760003560e01c806342842e0e11610097578063a22cb46511610066578063a22cb46514610297578063b88d4fde146102b3578063c87b56dd146102cf578063e985e9c5146102ff576100f5565b806342842e0e146101fd5780636352211e1461021957806370a082311461024957806395d89b4114610279576100f5565b8063095ea7b3116100d3578063095ea7b31461017857806323b872dd146101945780632a55205a146101b057806340c10f19146101e1576100f5565b806301ffc9a7146100fa57806306fdde031461012a578063081812fc14610148575b600080fd5b610114600480360381019061010f919061198f565b61032f565b60405161012191906119d7565b60405180910390f35b610132610341565b60405161013f9190611a8b565b60405180910390f35b610162600480360381019061015d9190611ae3565b6103d3565b60405161016f9190611b51565b60405180910390f35b610192600480360381019061018d9190611b98565b610458565b005b6101ae60048036038101906101a99190611bd8565b610570565b005b6101ca60048036038101906101c59190611c2b565b6105d0565b6040516101d8929190611c7a565b60405180910390f35b6101fb60048036038101906101f69190611b98565b6107bb565b005b61021760048036038101906102129190611bd8565b6107c9565b005b610233600480360381019061022e9190611ae3565b6107e9565b6040516102409190611b51565b60405180910390f35b610263600480360381019061025e9190611ca3565b61089b565b6040516102709190611cd0565b60405180910390f35b610281610953565b60405161028e9190611a8b565b60405180910390f35b6102b160048036038101906102ac9190611d17565b6109e5565b005b6102cd60048036038101906102c89190611e8c565b6109fb565b005b6102e960048036038101906102e49190611ae3565b610a5d565b6040516102f69190611a8b565b60405180910390f35b61031960048036038101906103149190611f0f565b610b04565b60405161032691906119d7565b60405180910390f35b600061033a82610b98565b9050919050565b60606000805461035090611f7e565b80601f016020809104026020016040519081016040528092919081815260200182805461037c90611f7e565b80156103c95780601f1061039e576101008083540402835291602001916103c9565b820191906000526020600020905b8154815290600101906020018083116103ac57829003601f168201915b5050505050905090565b60006103de82610c12565b61041d576040517f08c379a000000000000000000000000000000000000000000000000000000000815260040161041490612022565b60405180910390fd5b6004600083815260200190815260200160002060009054906101000a900473ffffffffffffffffffffffffffffffffffffffff169050919050565b6000610463826107e9565b90508073ffffffffffffffffffffffffffffffffffffffff168373ffffffffffffffffffffffffffffffffffffffff1614156104d4576040517f08c379a00000000000000000000000000000000000000000000000000000000081526004016104cb906120b4565b60405180910390fd5b8073ffffffffffffffffffffffffffffffffffffffff166104f3610c7e565b73ffffffffffffffffffffffffffffffffffffffff16148061052257506105218161051c610c7e565b610b04565b5b610561576040517f08c379a000000000000000000000000000000000000000000000000000000000815260040161055890612146565b60405180910390fd5b61056b8383610c86565b505050565b61058161057b610c7e565b82610d3f565b6105c0576040517f08c379a00000000000000000000000000000000000000000000000000000000081526004016105b7906121d8565b60405180910390fd5b6105cb838383610e1d565b505050565b6000806000600760008681526020019081526020016000206040518060400160405290816000820160009054906101000a900473ffffffffffffffffffffffffffffffffffffffff1673ffffffffffffffffffffffffffffffffffffffff1673ffffffffffffffffffffffffffffffffffffffff1681526020016000820160149054906101000a90046bffffffffffffffffffffffff166bffffffffffffffffffffffff166bffffffffffffffffffffffff16815250509050600073ffffffffffffffffffffffffffffffffffffffff16816000015173ffffffffffffffffffffffffffffffffffffffff1614156107665760066040518060400160405290816000820160009054906101000a900473ffffffffffffffffffffffffffffffffffffffff1673ffffffffffffffffffffffffffffffffffffffff1673ffffffffffffffffffffffffffffffffffffffff1681526020016000820160149054906101000a90046bffffffffffffffffffffffff166bffffffffffffffffffffffff166bffffffffffffffffffffffff168152505090505b6000610770611084565b6bffffffffffffffffffffffff1682602001516bffffffffffffffffffffffff168661079c9190612227565b6107a691906122b0565b90508160000151819350935050509250929050565b6107c5828261108e565b5050565b6107e4838383604051806020016040528060008152506109fb565b505050565b6000806002600084815260200190815260200160002060009054906101000a900473ffffffffffffffffffffffffffffffffffffffff169050600073ffffffffffffffffffffffffffffffffffffffff168173ffffffffffffffffffffffffffffffffffffffff161415610892576040517f08c379a000000000000000000000000000000000000000000000000000000000815260040161088990612353565b60405180910390fd5b80915050919050565b60008073ffffffffffffffffffffffffffffffffffffffff168273ffffffffffffffffffffffffffffffffffffffff16141561090c576040517f08c379a0000000000000000000000000000000000000000000000000000000008152600401610903906123e5565b60405180910390fd5b600360008373ffffffffffffffffffffffffffffffffffffffff1673ffffffffffffffffffffffffffffffffffffffff168152602001908152602001600020549050919050565b60606001805461096290611f7e565b80601f016020809104026020016040519081016040528092919081815260200182805461098e90611f7e565b80156109db5780601f106109b0576101008083540402835291602001916109db565b820191906000526020600020905b8154815290600101906020018083116109be57829003601f168201915b5050505050905090565b6109f76109f0610c7e565b83836110ac565b5050565b610a0c610a06610c7e565b83610d3f565b610a4b576040517f08c379a0000000000000000000000000000000000000000000000000000000008152600401610a42906121d8565b60405180910390fd5b610a5784848484611219565b50505050565b6060610a6882610c12565b610aa7576040517f08c379a0000000000000000000000000000000000000000000000000000000008152600401610a9e90612477565b60405180910390fd5b6000610ab1611275565b90506000815111610ad15760405180602001604052806000815250610afc565b80610adb8461128c565b604051602001610aec9291906124d3565b6040516020818303038152906040525b915050919050565b6000600560008473ffffffffffffffffffffffffffffffffffffffff1673ffffffffffffffffffffffffffffffffffffffff16815260200190815260200160002060008373ffffffffffffffffffffffffffffffffffffffff1673ffffffffffffffffffffffffffffffffffffffff16815260200190815260200160002060009054906101000a900460ff16905092915050565b60007f2a55205a000000000000000000000000000000000000000000000000000000007bffffffffffffffffffffffffffffffffffffffffffffffffffffffff1916827bffffffffffffffffffffffffffffffffffffffffffffffffffffffff19161480610c0b5750610c0a826113ed565b5b9050919050565b60008073ffffffffffffffffffffffffffffffffffffffff166002600084815260200190815260200160002060009054906101000a900473ffffffffffffffffffffffffffffffffffffffff1673ffffffffffffffffffffffffffffffffffffffff1614159050919050565b600033905090565b816004600083815260200190815260200160002060006101000a81548173ffffffffffffffffffffffffffffffffffffffff021916908373ffffffffffffffffffffffffffffffffffffffff160217905550808273ffffffffffffffffffffffffffffffffffffffff16610cf9836107e9565b73ffffffffffffffffffffffffffffffffffffffff167f8c5be1e5ebec7d5bd14f71427d1e84f3dd0314c0f7b2291e5b200ac8c7c3b92560405160405180910390a45050565b6000610d4a82610c12565b610d89576040517f08c379a0000000000000000000000000000000000000000000000000000000008152600401610d8090612569565b60405180910390fd5b6000610d94836107e9565b90508073ffffffffffffffffffffffffffffffffffffffff168473ffffffffffffffffffffffffffffffffffffffff161480610e0357508373ffffffffffffffffffffffffffffffffffffffff16610deb846103d3565b73ffffffffffffffffffffffffffffffffffffffff16145b80610e145750610e138185610b04565b5b91505092915050565b8273ffffffffffffffffffffffffffffffffffffffff16610e3d826107e9565b73ffffffffffffffffffffffffffffffffffffffff1614610e93576040517f08c379a0000000000000000000000000000000000000000000000000000000008152600401610e8a906125fb565b60405180910390fd5b600073ffffffffffffffffffffffffffffffffffffffff168273ffffffffffffffffffffffffffffffffffffffff161415610f03576040517f08c379a0000000000000000000000000000000000000000000000000000000008152600401610efa9061268d565b60405180910390fd5b610f0e8383836114cf565b610f19600082610c86565b6001600360008573ffffffffffffffffffffffffffffffffffffffff1673ffffffffffffffffffffffffffffffffffffffff1681526020019081526020016000206000828254610f6991906126ad565b925050819055506001600360008473ffffffffffffffffffffffffffffffffffffffff1673ffffffffffffffffffffffffffffffffffffffff1681526020019081526020016000206000828254610fc091906126e1565b92505081905550816002600083815260200190815260200160002060006101000a81548173ffffffffffffffffffffffffffffffffffffffff021916908373ffffffffffffffffffffffffffffffffffffffff160217905550808273ffffffffffffffffffffffffffffffffffffffff168473ffffffffffffffffffffffffffffffffffffffff167fddf252ad1be2c89b69c2b068fc378daa952ba7f163c4a11628f55a4df523b3ef60405160405180910390a461107f8383836114d4565b505050565b6000612710905090565b6110a88282604051806020016040528060008152506114d9565b5050565b8173ffffffffffffffffffffffffffffffffffffffff168373ffffffffffffffffffffffffffffffffffffffff16141561111b576040517f08c379a000000000000000000000000000000000000000000000000000000000815260040161111290612783565b60405180910390fd5b80600560008573ffffffffffffffffffffffffffffffffffffffff1673ffffffffffffffffffffffffffffffffffffffff16815260200190815260200160002060008473ffffffffffffffffffffffffffffffffffffffff1673ffffffffffffffffffffffffffffffffffffffff16815260200190815260200160002060006101000a81548160ff0219169083151502179055508173ffffffffffffffffffffffffffffffffffffffff168373ffffffffffffffffffffffffffffffffffffffff167f17307eab39ab6107e8899845ad3d59bd9653f200f220920489ca2b5937696c318360405161120c91906119d7565b60405180910390a3505050565b611224848484610e1d565b61123084848484611534565b61126f576040517f08c379a000000000000000000000000000000000000000000000000000000000815260040161126690612815565b60405180910390fd5b50505050565b606060405180602001604052806000815250905090565b606060008214156112d4576040518060400160405280600181526020017f300000000000000000000000000000000000000000000000000000000000000081525090506113e8565b600082905060005b600082146113065780806112ef90612835565b915050600a826112ff91906122b0565b91506112dc565b60008167ffffffffffffffff81111561132257611321611d61565b5b6040519080825280601f01601f1916602001820160405280156113545781602001600182028036833780820191505090505b5090505b600085146113e15760018261136d91906126ad565b9150600a8561137c919061287e565b603061138891906126e1565b60f81b81838151811061139e5761139d6128af565b5b60200101907effffffffffffffffffffffffffffffffffffffffffffffffffffffffffffff1916908160001a905350600a856113da91906122b0565b9450611358565b8093505050505b919050565b60007f80ac58cd000000000000000000000000000000000000000000000000000000007bffffffffffffffffffffffffffffffffffffffffffffffffffffffff1916827bffffffffffffffffffffffffffffffffffffffffffffffffffffffff191614806114b857507f5b5e139f000000000000000000000000000000000000000000000000000000007bffffffffffffffffffffffffffffffffffffffffffffffffffffffff1916827bffffffffffffffffffffffffffffffffffffffffffffffffffffffff1916145b806114c857506114c7826116bc565b5b9050919050565b505050565b505050565b6114e38383611726565b6114f06000848484611534565b61152f576040517f08c379a000000000000000000000000000000000000000000000000000000000815260040161152690612815565b60405180910390fd5b505050565b60006115558473ffffffffffffffffffffffffffffffffffffffff16611900565b156116af578373ffffffffffffffffffffffffffffffffffffffff1663150b7a0261157e610c7e565b8786866040518563ffffffff1660e01b81526004016115a09493929190612933565b6020604051808303816000875af19250505080156115dc57506040513d601f19601f820116820180604052508101906115d99190612994565b60015b61165f573d806000811461160c576040519150601f19603f3d011682016040523d82523d6000602084013e611611565b606091505b50600081511415611657576040517f08c379a000000000000000000000000000000000000000000000000000000000815260040161164e90612815565b60405180910390fd5b805181602001fd5b63150b7a0260e01b7bffffffffffffffffffffffffffffffffffffffffffffffffffffffff1916817bffffffffffffffffffffffffffffffffffffffffffffffffffffffff1916149150506116b4565b600190505b949350505050565b60007f01ffc9a7000000000000000000000000000000000000000000000000000000007bffffffffffffffffffffffffffffffffffffffffffffffffffffffff1916827bffffffffffffffffffffffffffffffffffffffffffffffffffffffff1916149050919050565b600073ffffffffffffffffffffffffffffffffffffffff168273ffffffffffffffffffffffffffffffffffffffff161415611796576040517f08c379a000000000000000000000000000000000000000000000000000000000815260040161178d90612a0d565b60405180910390fd5b61179f81610c12565b156117df576040517f08c379a00000000000000000000000000000000000000000000000000000000081526004016117d690612a79565b60405180910390fd5b6117eb600083836114cf565b6001600360008473ffffffffffffffffffffffffffffffffffffffff1673ffffffffffffffffffffffffffffffffffffffff168152602001908152602001600020600082825461183b91906126e1565b92505081905550816002600083815260200190815260200160002060006101000a81548173ffffffffffffffffffffffffffffffffffffffff021916908373ffffffffffffffffffffffffffffffffffffffff160217905550808273ffffffffffffffffffffffffffffffffffffffff16600073ffffffffffffffffffffffffffffffffffffffff167fddf252ad1be2c89b69c2b068fc378daa952ba7f163c4a11628f55a4df523b3ef60405160405180910390a46118fc600083836114d4565b5050565b6000808273ffffffffffffffffffffffffffffffffffffffff163b119050919050565b6000604051905090565b600080fd5b600080fd5b60007fffffffff0000000000000000000000000000000000000000000000000000000082169050919050565b61196c81611937565b811461197757600080fd5b50565b60008135905061198981611963565b92915050565b6000602082840312156119a5576119a461192d565b5b60006119b38482850161197a565b91505092915050565b60008115159050919050565b6119d1816119bc565b82525050565b60006020820190506119ec60008301846119c8565b92915050565b600081519050919050565b600082825260208201905092915050565b60005b83811015611a2c578082015181840152602081019050611a11565b83811115611a3b576000848401525b50505050565b6000601f19601f8301169050919050565b6000611a5d826119f2565b611a6781856119fd565b9350611a77818560208601611a0e565b611a8081611a41565b840191505092915050565b60006020820190508181036000830152611aa58184611a52565b905092915050565b6000819050919050565b611ac081611aad565b8114611acb57600080fd5b50565b600081359050611add81611ab7565b92915050565b600060208284031215611af957611af861192d565b5b6000611b0784828501611ace565b91505092915050565b600073ffffffffffffffffffffffffffffffffffffffff82169050919050565b6000611b3b82611b10565b9050919050565b611b4b81611b30565b82525050565b6000602082019050611b666000830184611b42565b92915050565b611b7581611b30565b8114611b8057600080fd5b50565b600081359050611b9281611b6c565b92915050565b60008060408385031215611baf57611bae61192d565b5b6000611bbd85828601611b83565b9250506020611bce85828601611ace565b9150509250929050565b600080600060608486031215611bf157611bf061192d565b5b6000611bff86828701611b83565b9350506020611c1086828701611b83565b9250506040611c2186828701611ace565b9150509250925092565b60008060408385031215611c4257611c4161192d565b5b6000611c5085828601611ace565b9250506020611c6185828601611ace565b9150509250929050565b611c7481611aad565b82525050565b6000604082019050611c8f6000830185611b42565b611c9c6020830184611c6b565b9392505050565b600060208284031215611cb957611cb861192d565b5b6000611cc784828501611b83565b91505092915050565b6000602082019050611ce56000830184611c6b565b92915050565b611cf4816119bc565b8114611cff57600080fd5b50565b600081359050611d1181611ceb565b92915050565b60008060408385031215611d2e57611d2d61192d565b5b6000611d3c85828601611b83565b9250506020611d4d85828601611d02565b9150509250929050565b600080fd5b600080fd5b7f4e487b7100000000000000000000000000000000000000000000000000000000600052604160045260246000fd5b611d9982611a41565b810181811067ffffffffffffffff82111715611db857611db7611d61565b5b80604052505050565b6000611dcb611923565b9050611dd78282611d90565b919050565b600067ffffffffffffffff821115611df757611df6611d61565b5b611e0082611a41565b9050602081019050919050565b82818337600083830152505050565b6000611e2f611e2a84611ddc565b611dc1565b905082815260208101848484011115611e4b57611e4a611d5c565b5b611e56848285611e0d565b509392505050565b600082601f830112611e7357611e72611d57565b5b8135611e83848260208601611e1c565b91505092915050565b60008060008060808587031215611ea657611ea561192d565b5b6000611eb487828801611b83565b9450506020611ec587828801611b83565b9350506040611ed687828801611ace565b925050606085013567ffffffffffffffff811115611ef757611ef6611932565b5b611f0387828801611e5e565b91505092959194509250565b60008060408385031215611f2657611f2561192d565b5b6000611f3485828601611b83565b9250506020611f4585828601611b83565b9150509250929050565b7f4e487b7100000000000000000000000000000000000000000000000000000000600052602260045260246000fd5b60006002820490506001821680611f9657607f821691505b60208210811415611faa57611fa9611f4f565b5b50919050565b7f4552433732313a20617070726f76656420717565727920666f72206e6f6e657860008201527f697374656e7420746f6b656e0000000000000000000000000000000000000000602082015250565b600061200c602c836119fd565b915061201782611fb0565b604082019050919050565b6000602082019050818103600083015261203b81611fff565b9050919050565b7f4552433732313a20617070726f76616c20746f2063757272656e74206f776e6560008201527f7200000000000000000000000000000000000000000000000000000000000000602082015250565b600061209e6021836119fd565b91506120a982612042565b604082019050919050565b600060208201905081810360008301526120cd81612091565b9050919050565b7f4552433732313a20617070726f76652063616c6c6572206973206e6f74206f7760008201527f6e6572206e6f7220617070726f76656420666f7220616c6c0000000000000000602082015250565b60006121306038836119fd565b915061213b826120d4565b604082019050919050565b6000602082019050818103600083015261215f81612123565b9050919050565b7f4552433732313a207472616e736665722063616c6c6572206973206e6f74206f60008201527f776e6572206e6f7220617070726f766564000000000000000000000000000000602082015250565b60006121c26031836119fd565b91506121cd82612166565b604082019050919050565b600060208201905081810360008301526121f1816121b5565b9050919050565b7f4e487b7100000000000000000000000000000000000000000000000000000000600052601160045260246000fd5b600061223282611aad565b915061223d83611aad565b9250817fffffffffffffffffffffffffffffffffffffffffffffffffffffffffffffffff0483118215151615612276576122756121f8565b5b828202905092915050565b7f4e487b7100000000000000000000000000000000000000000000000000000000600052601260045260246000fd5b60006122bb82611aad565b91506122c683611aad565b9250826122d6576122d5612281565b5b828204905092915050565b7f4552433732313a206f776e657220717565727920666f72206e6f6e657869737460008201527f656e7420746f6b656e0000000000000000000000000000000000000000000000602082015250565b600061233d6029836119fd565b9150612348826122e1565b604082019050919050565b6000602082019050818103600083015261236c81612330565b9050919050565b7f4552433732313a2062616c616e636520717565727920666f7220746865207a6560008201527f726f206164647265737300000000000000000000000000000000000000000000602082015250565b60006123cf602a836119fd565b91506123da82612373565b604082019050919050565b600060208201905081810360008301526123fe816123c2565b9050919050565b7f4552433732314d657461646174613a2055524920717565727920666f72206e6f60008201527f6e6578697374656e7420746f6b656e0000000000000000000000000000000000602082015250565b6000612461602f836119fd565b915061246c82612405565b604082019050919050565b6000602082019050818103600083015261249081612454565b9050919050565b600081905092915050565b60006124ad826119f2565b6124b78185612497565b93506124c7818560208601611a0e565b80840191505092915050565b60006124df82856124a2565b91506124eb82846124a2565b91508190509392505050565b7f4552433732313a206f70657261746f7220717565727920666f72206e6f6e657860008201527f697374656e7420746f6b656e0000000000000000000000000000000000000000602082015250565b6000612553602c836119fd565b915061255e826124f7565b604082019050919050565b6000602082019050818103600083015261258281612546565b9050919050565b7f4552433732313a207472616e736665722066726f6d20696e636f72726563742060008201527f6f776e6572000000000000000000000000000000000000000000000000000000602082015250565b60006125e56025836119fd565b91506125f082612589565b604082019050919050565b60006020820190508181036000830152612614816125d8565b9050919050565b7f4552433732313a207472616e7366657220746f20746865207a65726f2061646460008201527f7265737300000000000000000000000000000000000000000000000000000000602082015250565b60006126776024836119fd565b91506126828261261b565b604082019050919050565b600060208201905081810360008301526126a68161266a565b9050919050565b60006126b882611aad565b91506126c383611aad565b9250828210156126d6576126d56121f8565b5b828203905092915050565b60006126ec82611aad565b91506126f783611aad565b9250827fffffffffffffffffffffffffffffffffffffffffffffffffffffffffffffffff0382111561272c5761272b6121f8565b5b828201905092915050565b7f4552433732313a20617070726f766520746f2063616c6c657200000000000000600082015250565b600061276d6019836119fd565b915061277882612737565b602082019050919050565b6000602082019050818103600083015261279c81612760565b9050919050565b7f4552433732313a207472616e7366657220746f206e6f6e20455243373231526560008201527f63656976657220696d706c656d656e7465720000000000000000000000000000602082015250565b60006127ff6032836119fd565b915061280a826127a3565b604082019050919050565b6000602082019050818103600083015261282e816127f2565b9050919050565b600061284082611aad565b91507fffffffffffffffffffffffffffffffffffffffffffffffffffffffffffffffff821415612873576128726121f8565b5b600182019050919050565b600061288982611aad565b915061289483611aad565b9250826128a4576128a3612281565b5b828206905092915050565b7f4e487b7100000000000000000000000000000000000000000000000000000000600052603260045260246000fd5b600081519050919050565b600082825260208201905092915050565b6000612905826128de565b61290f81856128e9565b935061291f818560208601611a0e565b61292881611a41565b840191505092915050565b60006080820190506129486000830187611b42565b6129556020830186611b42565b6129626040830185611c6b565b818103606083015261297481846128fa565b905095945050505050565b60008151905061298e81611963565b92915050565b6000602082840312156129aa576129a961192d565b5b60006129b88482850161297f565b91505092915050565b7f4552433732313a206d696e7420746f20746865207a65726f2061646472657373600082015250565b60006129f76020836119fd565b9150612a02826129c1565b602082019050919050565b60006020820190508181036000830152612a26816129ea565b9050919050565b7f4552433732313a20746f6b656e20616c7265616479206d696e74656400000000600082015250565b6000612a63601c836119fd565b9150612a6e82612a2d565b602082019050919050565b60006020820190508181036000830152612a9281612a56565b905091905056fea26469706673582212204ba562f8aae065a3f75759a1d60a73c96a10dc3568512b8913e1f273542714ae64736f6c634300080c0033",
  "immutableReferences": {},
  "source": "// SPDX-License-Identifier: MIT\r\n\r\npragma solidity >=0.7.0 <0.9.0;\r\n\r\nimport \"@openzeppelin/contracts/token/common/ERC2981.sol\";\r\nimport \"@openzeppelin/contracts/token/ERC721/ERC721.sol\";\r\n\r\ncontract NFT721Royalty is ERC721, ERC2981{\r\n\r\n  constructor() ERC721('LiangNft', 'LNFT'){\r\n\r\n    //set loyalty 2% equal to 200 basis points\r\n    _setDefaultRoyalty(_msgSender(), 200);\r\n  }\r\n\r\n  function mint(address to, uint256 tokenId) public {\r\n    _safeMint(to, tokenId);\r\n  }\r\n\r\n  //This function is to overide supportInterface function of ERC721 and ERC2981l\r\n  function supportsInterface(bytes4 interfaceId) public view virtual override(ERC721, ERC2981) returns (bool) {\r\n      return super.supportsInterface(interfaceId);\r\n  }\r\n\r\n\r\n}\r\n",
  "sourcePath": "D:\\Users\\yesla\\Desktop\\solidityworkspace\\nft_royalty\\contracts\\NFT721Royalty.sol",
  "compiler": {
    "name": "solc",
    "version": "0.8.12+commit.f00d7308.Emscripten.clang"
  },
  "schemaVersion": "3.4.6",
  "updatedAt": "2022-03-21T06:33:08.945Z",
  "devdoc": {
    "kind": "dev",
    "methods": {
      "approve(address,uint256)": {
        "details": "See {IERC721-approve}."
      },
      "balanceOf(address)": {
        "details": "See {IERC721-balanceOf}."
      },
      "getApproved(uint256)": {
        "details": "See {IERC721-getApproved}."
      },
      "isApprovedForAll(address,address)": {
        "details": "See {IERC721-isApprovedForAll}."
      },
      "name()": {
        "details": "See {IERC721Metadata-name}."
      },
      "ownerOf(uint256)": {
        "details": "See {IERC721-ownerOf}."
      },
      "royaltyInfo(uint256,uint256)": {
        "details": "Returns how much royalty is owed and to whom, based on a sale price that may be denominated in any unit of exchange. The royalty amount is denominated and should be payed in that same unit of exchange."
      },
      "safeTransferFrom(address,address,uint256)": {
        "details": "See {IERC721-safeTransferFrom}."
      },
      "safeTransferFrom(address,address,uint256,bytes)": {
        "details": "See {IERC721-safeTransferFrom}."
      },
      "setApprovalForAll(address,bool)": {
        "details": "See {IERC721-setApprovalForAll}."
      },
      "symbol()": {
        "details": "See {IERC721Metadata-symbol}."
      },
      "tokenURI(uint256)": {
        "details": "See {IERC721Metadata-tokenURI}."
      },
      "transferFrom(address,address,uint256)": {
        "details": "See {IERC721-transferFrom}."
      }
    },
    "version": 1
  },
  "userdoc": {
    "kind": "user",
    "methods": {},
    "version": 1
  }
}