{
  "contractName": "NFT721Royalty",
  "abi": [
    {
      "inputs": [],
      "stateMutability": "nonpayable",
      "type": "constructor"
    },
    {
      "anonymous": false,
      "inputs": [
        {
          "indexed": true,
          "internalType": "address",
          "name": "owner",
          "type": "address"
        },
        {
          "indexed": true,
          "internalType": "address",
          "name": "approved",
          "type": "address"
        },
        {
          "indexed": true,
          "internalType": "uint256",
          "name": "tokenId",
          "type": "uint256"
        }
      ],
      "name": "Approval",
      "type": "event"
    },
    {
      "anonymous": false,
      "inputs": [
        {
          "indexed": true,
          "internalType": "address",
          "name": "owner",
          "type": "address"
        },
        {
          "indexed": true,
          "internalType": "address",
          "name": "operator",
          "type": "address"
        },
        {
          "indexed": false,
          "internalType": "bool",
          "name": "approved",
          "type": "bool"
        }
      ],
      "name": "ApprovalForAll",
      "type": "event"
    },
    {
      "anonymous": false,
      "inputs": [
        {
          "indexed": true,
          "internalType": "address",
          "name": "from",
          "type": "address"
        },
        {
          "indexed": true,
          "internalType": "address",
          "name": "to",
          "type": "address"
        },
        {
          "indexed": true,
          "internalType": "uint256",
          "name": "tokenId",
          "type": "uint256"
        }
      ],
      "name": "Transfer",
      "type": "event"
    },
    {
      "inputs": [
        {
          "internalType": "address",
          "name": "to",
          "type": "address"
        },
        {
          "internalType": "uint256",
          "name": "tokenId",
          "type": "uint256"
        }
      ],
      "name": "approve",
      "outputs": [],
      "stateMutability": "nonpayable",
      "type": "function"
    },
    {
      "inputs": [
        {
          "internalType": "address",
          "name": "owner",
          "type": "address"
        }
      ],
      "name": "balanceOf",
      "outputs": [
        {
          "internalType": "uint256",
          "name": "",
          "type": "uint256"
        }
      ],
      "stateMutability": "view",
      "type": "function",
      "constant": true
    },
    {
      "inputs": [
        {
          "internalType": "uint256",
          "name": "tokenId",
          "type": "uint256"
        }
      ],
      "name": "getApproved",
      "outputs": [
        {
          "internalType": "address",
          "name": "",
          "type": "address"
        }
      ],
      "stateMutability": "view",
      "type": "function",
      "constant": true
    },
    {
      "inputs": [
        {
          "internalType": "address",
          "name": "owner",
          "type": "address"
        },
        {
          "internalType": "address",
          "name": "operator",
          "type": "address"
        }
      ],
      "name": "isApprovedForAll",
      "outputs": [
        {
          "internalType": "bool",
          "name": "",
          "type": "bool"
        }
      ],
      "stateMutability": "view",
      "type": "function",
      "constant": true
    },
    {
      "inputs": [],
      "name": "name",
      "outputs": [
        {
          "internalType": "string",
          "name": "",
          "type": "string"
        }
      ],
      "stateMutability": "view",
      "type": "function",
      "constant": true
    },
    {
      "inputs": [
        {
          "internalType": "uint256",
          "name": "tokenId",
          "type": "uint256"
        }
      ],
      "name": "ownerOf",
      "outputs": [
        {
          "internalType": "address",
          "name": "",
          "type": "address"
        }
      ],
      "stateMutability": "view",
      "type": "function",
      "constant": true
    },
    {
      "inputs": [
        {
          "internalType": "uint256",
          "name": "_tokenId",
          "type": "uint256"
        },
        {
          "internalType": "uint256",
          "name": "_salePrice",
          "type": "uint256"
        }
      ],
      "name": "royaltyInfo",
      "outputs": [
        {
          "internalType": "address",
          "name": "",
          "type": "address"
        },
        {
          "internalType": "uint256",
          "name": "",
          "type": "uint256"
        }
      ],
      "stateMutability": "view",
      "type": "function",
      "constant": true
    },
    {
      "inputs": [
        {
          "internalType": "address",
          "name": "from",
          "type": "address"
        },
        {
          "internalType": "address",
          "name": "to",
          "type": "address"
        },
        {
          "internalType": "uint256",
          "name": "tokenId",
          "type": "uint256"
        }
      ],
      "name": "safeTransferFrom",
      "outputs": [],
      "stateMutability": "nonpayable",
      "type": "function"
    },
    {
      "inputs": [
        {
          "internalType": "address",
          "name": "from",
          "type": "address"
        },
        {
          "internalType": "address",
          "name": "to",
          "type": "address"
        },
        {
          "internalType": "uint256",
          "name": "tokenId",
          "type": "uint256"
        },
        {
          "internalType": "bytes",
          "name": "_data",
          "type": "bytes"
        }
      ],
      "name": "safeTransferFrom",
      "outputs": [],
      "stateMutability": "nonpayable",
      "type": "function"
    },
    {
      "inputs": [
        {
          "internalType": "address",
          "name": "operator",
          "type": "address"
        },
        {
          "internalType": "bool",
          "name": "approved",
          "type": "bool"
        }
      ],
      "name": "setApprovalForAll",
      "outputs": [],
      "stateMutability": "nonpayable",
      "type": "function"
    },
    {
      "inputs": [],
      "name": "symbol",
      "outputs": [
        {
          "internalType": "string",
          "name": "",
          "type": "string"
        }
      ],
      "stateMutability": "view",
      "type": "function",
      "constant": true
    },
    {
      "inputs": [
        {
          "internalType": "uint256",
          "name": "tokenId",
          "type": "uint256"
        }
      ],
      "name": "tokenURI",
      "outputs": [
        {
          "internalType": "string",
          "name": "",
          "type": "string"
        }
      ],
      "stateMutability": "view",
      "type": "function",
      "constant": true
    },
    {
      "inputs": [
        {
          "internalType": "address",
          "name": "from",
          "type": "address"
        },
        {
          "internalType": "address",
          "name": "to",
          "type": "address"
        },
        {
          "internalType": "uint256",
          "name": "tokenId",
          "type": "uint256"
        }
      ],
      "name": "transferFrom",
      "outputs": [],
      "stateMutability": "nonpayable",
      "type": "function"
    },
    {
      "inputs": [
        {
          "internalType": "bytes4",
          "name": "interfaceId",
          "type": "bytes4"
        }
      ],
      "name": "supportsInterface",
      "outputs": [
        {
          "internalType": "bool",
          "name": "",
          "type": "bool"
        }
      ],
      "stateMutability": "view",
      "type": "function",
      "constant": true
    }
  ],
  "bytecode": "0x60806040523480156200001157600080fd5b506040518060400160405280600881526020017f4c69616e674e66740000000000000000000000000000000000000000000000008152506040518060400160405280600481526020017f4c4e46540000000000000000000000000000000000000000000000000000000081525081600090805190602001906200009692919062000290565b508060019080519060200190620000af92919062000290565b505050620000d4620000c6620000da60201b60201c565b60c8620000e260201b60201c565b620004c0565b600033905090565b620000f26200028660201b60201c565b6bffffffffffffffffffffffff16816bffffffffffffffffffffffff16111562000153576040517f08c379a00000000000000000000000000000000000000000000000000000000081526004016200014a90620003c7565b60405180910390fd5b600073ffffffffffffffffffffffffffffffffffffffff168273ffffffffffffffffffffffffffffffffffffffff161415620001c6576040517f08c379a0000000000000000000000000000000000000000000000000000000008152600401620001bd9062000439565b60405180910390fd5b60405180604001604052808373ffffffffffffffffffffffffffffffffffffffff168152602001826bffffffffffffffffffffffff16815250600660008201518160000160006101000a81548173ffffffffffffffffffffffffffffffffffffffff021916908373ffffffffffffffffffffffffffffffffffffffff16021790555060208201518160000160146101000a8154816bffffffffffffffffffffffff02191690836bffffffffffffffffffffffff1602179055509050505050565b6000612710905090565b8280546200029e906200048a565b90600052602060002090601f016020900481019282620002c257600085556200030e565b82601f10620002dd57805160ff19168380011785556200030e565b828001600101855582156200030e579182015b828111156200030d578251825591602001919060010190620002f0565b5b5090506200031d919062000321565b5090565b5b808211156200033c57600081600090555060010162000322565b5090565b600082825260208201905092915050565b7f455243323938313a20726f79616c7479206665652077696c6c2065786365656460008201527f2073616c65507269636500000000000000000000000000000000000000000000602082015250565b6000620003af602a8362000340565b9150620003bc8262000351565b604082019050919050565b60006020820190508181036000830152620003e281620003a0565b9050919050565b7f455243323938313a20696e76616c696420726563656976657200000000000000600082015250565b60006200042160198362000340565b91506200042e82620003e9565b602082019050919050565b60006020820190508181036000830152620004548162000412565b9050919050565b7f4e487b7100000000000000000000000000000000000000000000000000000000600052602260045260246000fd5b60006002820490506001821680620004a357607f821691505b60208210811415620004ba57620004b96200045b565b5b50919050565b61276f80620004d06000396000f3fe608060405234801561001057600080fd5b50600436106100ea5760003560e01c80636352211e1161008c578063a22cb46511610066578063a22cb46514610270578063b88d4fde1461028c578063c87b56dd146102a8578063e985e9c5146102d8576100ea565b80636352211e146101f257806370a082311461022257806395d89b4114610252576100ea565b8063095ea7b3116100c8578063095ea7b31461016d57806323b872dd146101895780632a55205a146101a557806342842e0e146101d6576100ea565b806301ffc9a7146100ef57806306fdde031461011f578063081812fc1461013d575b600080fd5b61010960048036038101906101049190611707565b610308565b604051610116919061174f565b60405180910390f35b61012761031a565b6040516101349190611803565b60405180910390f35b6101576004803603810190610152919061185b565b6103ac565b60405161016491906118c9565b60405180910390f35b61018760048036038101906101829190611910565b610431565b005b6101a3600480360381019061019e9190611950565b610549565b005b6101bf60048036038101906101ba91906119a3565b6105a9565b6040516101cd9291906119f2565b60405180910390f35b6101f060048036038101906101eb9190611950565b610794565b005b61020c6004803603810190610207919061185b565b6107b4565b60405161021991906118c9565b60405180910390f35b61023c60048036038101906102379190611a1b565b610866565b6040516102499190611a48565b60405180910390f35b61025a61091e565b6040516102679190611803565b60405180910390f35b61028a60048036038101906102859190611a8f565b6109b0565b005b6102a660048036038101906102a19190611c04565b6109c6565b005b6102c260048036038101906102bd919061185b565b610a28565b6040516102cf9190611803565b60405180910390f35b6102f260048036038101906102ed9190611c87565b610acf565b6040516102ff919061174f565b60405180910390f35b600061031382610b63565b9050919050565b60606000805461032990611cf6565b80601f016020809104026020016040519081016040528092919081815260200182805461035590611cf6565b80156103a25780601f10610377576101008083540402835291602001916103a2565b820191906000526020600020905b81548152906001019060200180831161038557829003601f168201915b5050505050905090565b60006103b782610bdd565b6103f6576040517f08c379a00000000000000000000000000000000000000000000000000000000081526004016103ed90611d9a565b60405180910390fd5b6004600083815260200190815260200160002060009054906101000a900473ffffffffffffffffffffffffffffffffffffffff169050919050565b600061043c826107b4565b90508073ffffffffffffffffffffffffffffffffffffffff168373ffffffffffffffffffffffffffffffffffffffff1614156104ad576040517f08c379a00000000000000000000000000000000000000000000000000000000081526004016104a490611e2c565b60405180910390fd5b8073ffffffffffffffffffffffffffffffffffffffff166104cc610c49565b73ffffffffffffffffffffffffffffffffffffffff1614806104fb57506104fa816104f5610c49565b610acf565b5b61053a576040517f08c379a000000000000000000000000000000000000000000000000000000000815260040161053190611ebe565b60405180910390fd5b6105448383610c51565b505050565b61055a610554610c49565b82610d0a565b610599576040517f08c379a000000000000000000000000000000000000000000000000000000000815260040161059090611f50565b60405180910390fd5b6105a4838383610de8565b505050565b6000806000600760008681526020019081526020016000206040518060400160405290816000820160009054906101000a900473ffffffffffffffffffffffffffffffffffffffff1673ffffffffffffffffffffffffffffffffffffffff1673ffffffffffffffffffffffffffffffffffffffff1681526020016000820160149054906101000a90046bffffffffffffffffffffffff166bffffffffffffffffffffffff166bffffffffffffffffffffffff16815250509050600073ffffffffffffffffffffffffffffffffffffffff16816000015173ffffffffffffffffffffffffffffffffffffffff16141561073f5760066040518060400160405290816000820160009054906101000a900473ffffffffffffffffffffffffffffffffffffffff1673ffffffffffffffffffffffffffffffffffffffff1673ffffffffffffffffffffffffffffffffffffffff1681526020016000820160149054906101000a90046bffffffffffffffffffffffff166bffffffffffffffffffffffff166bffffffffffffffffffffffff168152505090505b600061074961104f565b6bffffffffffffffffffffffff1682602001516bffffffffffffffffffffffff16866107759190611f9f565b61077f9190612028565b90508160000151819350935050509250929050565b6107af838383604051806020016040528060008152506109c6565b505050565b6000806002600084815260200190815260200160002060009054906101000a900473ffffffffffffffffffffffffffffffffffffffff169050600073ffffffffffffffffffffffffffffffffffffffff168173ffffffffffffffffffffffffffffffffffffffff16141561085d576040517f08c379a0000000000000000000000000000000000000000000000000000000008152600401610854906120cb565b60405180910390fd5b80915050919050565b60008073ffffffffffffffffffffffffffffffffffffffff168273ffffffffffffffffffffffffffffffffffffffff1614156108d7576040517f08c379a00000000000000000000000000000000000000000000000000000000081526004016108ce9061215d565b60405180910390fd5b600360008373ffffffffffffffffffffffffffffffffffffffff1673ffffffffffffffffffffffffffffffffffffffff168152602001908152602001600020549050919050565b60606001805461092d90611cf6565b80601f016020809104026020016040519081016040528092919081815260200182805461095990611cf6565b80156109a65780601f1061097b576101008083540402835291602001916109a6565b820191906000526020600020905b81548152906001019060200180831161098957829003601f168201915b5050505050905090565b6109c26109bb610c49565b8383611059565b5050565b6109d76109d1610c49565b83610d0a565b610a16576040517f08c379a0000000000000000000000000000000000000000000000000000000008152600401610a0d90611f50565b60405180910390fd5b610a22848484846111c6565b50505050565b6060610a3382610bdd565b610a72576040517f08c379a0000000000000000000000000000000000000000000000000000000008152600401610a69906121ef565b60405180910390fd5b6000610a7c611222565b90506000815111610a9c5760405180602001604052806000815250610ac7565b80610aa684611239565b604051602001610ab792919061224b565b6040516020818303038152906040525b915050919050565b6000600560008473ffffffffffffffffffffffffffffffffffffffff1673ffffffffffffffffffffffffffffffffffffffff16815260200190815260200160002060008373ffffffffffffffffffffffffffffffffffffffff1673ffffffffffffffffffffffffffffffffffffffff16815260200190815260200160002060009054906101000a900460ff16905092915050565b60007f2a55205a000000000000000000000000000000000000000000000000000000007bffffffffffffffffffffffffffffffffffffffffffffffffffffffff1916827bffffffffffffffffffffffffffffffffffffffffffffffffffffffff19161480610bd65750610bd58261139a565b5b9050919050565b60008073ffffffffffffffffffffffffffffffffffffffff166002600084815260200190815260200160002060009054906101000a900473ffffffffffffffffffffffffffffffffffffffff1673ffffffffffffffffffffffffffffffffffffffff1614159050919050565b600033905090565b816004600083815260200190815260200160002060006101000a81548173ffffffffffffffffffffffffffffffffffffffff021916908373ffffffffffffffffffffffffffffffffffffffff160217905550808273ffffffffffffffffffffffffffffffffffffffff16610cc4836107b4565b73ffffffffffffffffffffffffffffffffffffffff167f8c5be1e5ebec7d5bd14f71427d1e84f3dd0314c0f7b2291e5b200ac8c7c3b92560405160405180910390a45050565b6000610d1582610bdd565b610d54576040517f08c379a0000000000000000000000000000000000000000000000000000000008152600401610d4b906122e1565b60405180910390fd5b6000610d5f836107b4565b90508073ffffffffffffffffffffffffffffffffffffffff168473ffffffffffffffffffffffffffffffffffffffff161480610dce57508373ffffffffffffffffffffffffffffffffffffffff16610db6846103ac565b73ffffffffffffffffffffffffffffffffffffffff16145b80610ddf5750610dde8185610acf565b5b91505092915050565b8273ffffffffffffffffffffffffffffffffffffffff16610e08826107b4565b73ffffffffffffffffffffffffffffffffffffffff1614610e5e576040517f08c379a0000000000000000000000000000000000000000000000000000000008152600401610e5590612373565b60405180910390fd5b600073ffffffffffffffffffffffffffffffffffffffff168273ffffffffffffffffffffffffffffffffffffffff161415610ece576040517f08c379a0000000000000000000000000000000000000000000000000000000008152600401610ec590612405565b60405180910390fd5b610ed983838361147c565b610ee4600082610c51565b6001600360008573ffffffffffffffffffffffffffffffffffffffff1673ffffffffffffffffffffffffffffffffffffffff1681526020019081526020016000206000828254610f349190612425565b925050819055506001600360008473ffffffffffffffffffffffffffffffffffffffff1673ffffffffffffffffffffffffffffffffffffffff1681526020019081526020016000206000828254610f8b9190612459565b92505081905550816002600083815260200190815260200160002060006101000a81548173ffffffffffffffffffffffffffffffffffffffff021916908373ffffffffffffffffffffffffffffffffffffffff160217905550808273ffffffffffffffffffffffffffffffffffffffff168473ffffffffffffffffffffffffffffffffffffffff167fddf252ad1be2c89b69c2b068fc378daa952ba7f163c4a11628f55a4df523b3ef60405160405180910390a461104a838383611481565b505050565b6000612710905090565b8173ffffffffffffffffffffffffffffffffffffffff168373ffffffffffffffffffffffffffffffffffffffff1614156110c8576040517f08c379a00000000000000000000000000000000000000000000000000000000081526004016110bf906124fb565b60405180910390fd5b80600560008573ffffffffffffffffffffffffffffffffffffffff1673ffffffffffffffffffffffffffffffffffffffff16815260200190815260200160002060008473ffffffffffffffffffffffffffffffffffffffff1673ffffffffffffffffffffffffffffffffffffffff16815260200190815260200160002060006101000a81548160ff0219169083151502179055508173ffffffffffffffffffffffffffffffffffffffff168373ffffffffffffffffffffffffffffffffffffffff167f17307eab39ab6107e8899845ad3d59bd9653f200f220920489ca2b5937696c31836040516111b9919061174f565b60405180910390a3505050565b6111d1848484610de8565b6111dd84848484611486565b61121c576040517f08c379a00000000000000000000000000000000000000000000000000000000081526004016112139061258d565b60405180910390fd5b50505050565b606060405180602001604052806000815250905090565b60606000821415611281576040518060400160405280600181526020017f30000000000000000000000000000000000000000000000000000000000000008152509050611395565b600082905060005b600082146112b357808061129c906125ad565b915050600a826112ac9190612028565b9150611289565b60008167ffffffffffffffff8111156112cf576112ce611ad9565b5b6040519080825280601f01601f1916602001820160405280156113015781602001600182028036833780820191505090505b5090505b6000851461138e5760018261131a9190612425565b9150600a8561132991906125f6565b60306113359190612459565b60f81b81838151811061134b5761134a612627565b5b60200101907effffffffffffffffffffffffffffffffffffffffffffffffffffffffffffff1916908160001a905350600a856113879190612028565b9450611305565b8093505050505b919050565b60007f80ac58cd000000000000000000000000000000000000000000000000000000007bffffffffffffffffffffffffffffffffffffffffffffffffffffffff1916827bffffffffffffffffffffffffffffffffffffffffffffffffffffffff1916148061146557507f5b5e139f000000000000000000000000000000000000000000000000000000007bffffffffffffffffffffffffffffffffffffffffffffffffffffffff1916827bffffffffffffffffffffffffffffffffffffffffffffffffffffffff1916145b8061147557506114748261160e565b5b9050919050565b505050565b505050565b60006114a78473ffffffffffffffffffffffffffffffffffffffff16611678565b15611601578373ffffffffffffffffffffffffffffffffffffffff1663150b7a026114d0610c49565b8786866040518563ffffffff1660e01b81526004016114f294939291906126ab565b6020604051808303816000875af192505050801561152e57506040513d601f19601f8201168201806040525081019061152b919061270c565b60015b6115b1573d806000811461155e576040519150601f19603f3d011682016040523d82523d6000602084013e611563565b606091505b506000815114156115a9576040517f08c379a00000000000000000000000000000000000000000000000000000000081526004016115a09061258d565b60405180910390fd5b805181602001fd5b63150b7a0260e01b7bffffffffffffffffffffffffffffffffffffffffffffffffffffffff1916817bffffffffffffffffffffffffffffffffffffffffffffffffffffffff191614915050611606565b600190505b949350505050565b60007f01ffc9a7000000000000000000000000000000000000000000000000000000007bffffffffffffffffffffffffffffffffffffffffffffffffffffffff1916827bffffffffffffffffffffffffffffffffffffffffffffffffffffffff1916149050919050565b6000808273ffffffffffffffffffffffffffffffffffffffff163b119050919050565b6000604051905090565b600080fd5b600080fd5b60007fffffffff0000000000000000000000000000000000000000000000000000000082169050919050565b6116e4816116af565b81146116ef57600080fd5b50565b600081359050611701816116db565b92915050565b60006020828403121561171d5761171c6116a5565b5b600061172b848285016116f2565b91505092915050565b60008115159050919050565b61174981611734565b82525050565b60006020820190506117646000830184611740565b92915050565b600081519050919050565b600082825260208201905092915050565b60005b838110156117a4578082015181840152602081019050611789565b838111156117b3576000848401525b50505050565b6000601f19601f8301169050919050565b60006117d58261176a565b6117df8185611775565b93506117ef818560208601611786565b6117f8816117b9565b840191505092915050565b6000602082019050818103600083015261181d81846117ca565b905092915050565b6000819050919050565b61183881611825565b811461184357600080fd5b50565b6000813590506118558161182f565b92915050565b600060208284031215611871576118706116a5565b5b600061187f84828501611846565b91505092915050565b600073ffffffffffffffffffffffffffffffffffffffff82169050919050565b60006118b382611888565b9050919050565b6118c3816118a8565b82525050565b60006020820190506118de60008301846118ba565b92915050565b6118ed816118a8565b81146118f857600080fd5b50565b60008135905061190a816118e4565b92915050565b60008060408385031215611927576119266116a5565b5b6000611935858286016118fb565b925050602061194685828601611846565b9150509250929050565b600080600060608486031215611969576119686116a5565b5b6000611977868287016118fb565b9350506020611988868287016118fb565b925050604061199986828701611846565b9150509250925092565b600080604083850312156119ba576119b96116a5565b5b60006119c885828601611846565b92505060206119d985828601611846565b9150509250929050565b6119ec81611825565b82525050565b6000604082019050611a0760008301856118ba565b611a1460208301846119e3565b9392505050565b600060208284031215611a3157611a306116a5565b5b6000611a3f848285016118fb565b91505092915050565b6000602082019050611a5d60008301846119e3565b92915050565b611a6c81611734565b8114611a7757600080fd5b50565b600081359050611a8981611a63565b92915050565b60008060408385031215611aa657611aa56116a5565b5b6000611ab4858286016118fb565b9250506020611ac585828601611a7a565b9150509250929050565b600080fd5b600080fd5b7f4e487b7100000000000000000000000000000000000000000000000000000000600052604160045260246000fd5b611b11826117b9565b810181811067ffffffffffffffff82111715611b3057611b2f611ad9565b5b80604052505050565b6000611b4361169b565b9050611b4f8282611b08565b919050565b600067ffffffffffffffff821115611b6f57611b6e611ad9565b5b611b78826117b9565b9050602081019050919050565b82818337600083830152505050565b6000611ba7611ba284611b54565b611b39565b905082815260208101848484011115611bc357611bc2611ad4565b5b611bce848285611b85565b509392505050565b600082601f830112611beb57611bea611acf565b5b8135611bfb848260208601611b94565b91505092915050565b60008060008060808587031215611c1e57611c1d6116a5565b5b6000611c2c878288016118fb565b9450506020611c3d878288016118fb565b9350506040611c4e87828801611846565b925050606085013567ffffffffffffffff811115611c6f57611c6e6116aa565b5b611c7b87828801611bd6565b91505092959194509250565b60008060408385031215611c9e57611c9d6116a5565b5b6000611cac858286016118fb565b9250506020611cbd858286016118fb565b9150509250929050565b7f4e487b7100000000000000000000000000000000000000000000000000000000600052602260045260246000fd5b60006002820490506001821680611d0e57607f821691505b60208210811415611d2257611d21611cc7565b5b50919050565b7f4552433732313a20617070726f76656420717565727920666f72206e6f6e657860008201527f697374656e7420746f6b656e0000000000000000000000000000000000000000602082015250565b6000611d84602c83611775565b9150611d8f82611d28565b604082019050919050565b60006020820190508181036000830152611db381611d77565b9050919050565b7f4552433732313a20617070726f76616c20746f2063757272656e74206f776e6560008201527f7200000000000000000000000000000000000000000000000000000000000000602082015250565b6000611e16602183611775565b9150611e2182611dba565b604082019050919050565b60006020820190508181036000830152611e4581611e09565b9050919050565b7f4552433732313a20617070726f76652063616c6c6572206973206e6f74206f7760008201527f6e6572206e6f7220617070726f76656420666f7220616c6c0000000000000000602082015250565b6000611ea8603883611775565b9150611eb382611e4c565b604082019050919050565b60006020820190508181036000830152611ed781611e9b565b9050919050565b7f4552433732313a207472616e736665722063616c6c6572206973206e6f74206f60008201527f776e6572206e6f7220617070726f766564000000000000000000000000000000602082015250565b6000611f3a603183611775565b9150611f4582611ede565b604082019050919050565b60006020820190508181036000830152611f6981611f2d565b9050919050565b7f4e487b7100000000000000000000000000000000000000000000000000000000600052601160045260246000fd5b6000611faa82611825565b9150611fb583611825565b9250817fffffffffffffffffffffffffffffffffffffffffffffffffffffffffffffffff0483118215151615611fee57611fed611f70565b5b828202905092915050565b7f4e487b7100000000000000000000000000000000000000000000000000000000600052601260045260246000fd5b600061203382611825565b915061203e83611825565b92508261204e5761204d611ff9565b5b828204905092915050565b7f4552433732313a206f776e657220717565727920666f72206e6f6e657869737460008201527f656e7420746f6b656e0000000000000000000000000000000000000000000000602082015250565b60006120b5602983611775565b91506120c082612059565b604082019050919050565b600060208201905081810360008301526120e4816120a8565b9050919050565b7f4552433732313a2062616c616e636520717565727920666f7220746865207a6560008201527f726f206164647265737300000000000000000000000000000000000000000000602082015250565b6000612147602a83611775565b9150612152826120eb565b604082019050919050565b600060208201905081810360008301526121768161213a565b9050919050565b7f4552433732314d657461646174613a2055524920717565727920666f72206e6f60008201527f6e6578697374656e7420746f6b656e0000000000000000000000000000000000602082015250565b60006121d9602f83611775565b91506121e48261217d565b604082019050919050565b60006020820190508181036000830152612208816121cc565b9050919050565b600081905092915050565b60006122258261176a565b61222f818561220f565b935061223f818560208601611786565b80840191505092915050565b6000612257828561221a565b9150612263828461221a565b91508190509392505050565b7f4552433732313a206f70657261746f7220717565727920666f72206e6f6e657860008201527f697374656e7420746f6b656e0000000000000000000000000000000000000000602082015250565b60006122cb602c83611775565b91506122d68261226f565b604082019050919050565b600060208201905081810360008301526122fa816122be565b9050919050565b7f4552433732313a207472616e736665722066726f6d20696e636f72726563742060008201527f6f776e6572000000000000000000000000000000000000000000000000000000602082015250565b600061235d602583611775565b915061236882612301565b604082019050919050565b6000602082019050818103600083015261238c81612350565b9050919050565b7f4552433732313a207472616e7366657220746f20746865207a65726f2061646460008201527f7265737300000000000000000000000000000000000000000000000000000000602082015250565b60006123ef602483611775565b91506123fa82612393565b604082019050919050565b6000602082019050818103600083015261241e816123e2565b9050919050565b600061243082611825565b915061243b83611825565b92508282101561244e5761244d611f70565b5b828203905092915050565b600061246482611825565b915061246f83611825565b9250827fffffffffffffffffffffffffffffffffffffffffffffffffffffffffffffffff038211156124a4576124a3611f70565b5b828201905092915050565b7f4552433732313a20617070726f766520746f2063616c6c657200000000000000600082015250565b60006124e5601983611775565b91506124f0826124af565b602082019050919050565b60006020820190508181036000830152612514816124d8565b9050919050565b7f4552433732313a207472616e7366657220746f206e6f6e20455243373231526560008201527f63656976657220696d706c656d656e7465720000000000000000000000000000602082015250565b6000612577603283611775565b91506125828261251b565b604082019050919050565b600060208201905081810360008301526125a68161256a565b9050919050565b60006125b882611825565b91507fffffffffffffffffffffffffffffffffffffffffffffffffffffffffffffffff8214156125eb576125ea611f70565b5b600182019050919050565b600061260182611825565b915061260c83611825565b92508261261c5761261b611ff9565b5b828206905092915050565b7f4e487b7100000000000000000000000000000000000000000000000000000000600052603260045260246000fd5b600081519050919050565b600082825260208201905092915050565b600061267d82612656565b6126878185612661565b9350612697818560208601611786565b6126a0816117b9565b840191505092915050565b60006080820190506126c060008301876118ba565b6126cd60208301866118ba565b6126da60408301856119e3565b81810360608301526126ec8184612672565b905095945050505050565b600081519050612706816116db565b92915050565b600060208284031215612722576127216116a5565b5b6000612730848285016126f7565b9150509291505056fea2646970667358221220564d793d886788021ce7113710c8d4a81412e93642c047cc64918f5dbb84017664736f6c634300080c0033",
  "immutableReferences": {},
  "source": "// SPDX-License-Identifier: MIT\r\n\r\npragma solidity >=0.7.0 <0.9.0;\r\n\r\nimport \"@openzeppelin/contracts/token/common/ERC2981.sol\";\r\nimport \"@openzeppelin/contracts/token/ERC721/ERC721.sol\";\r\n\r\ncontract NFT721Royalty is ERC721, ERC2981{\r\n\r\n  constructor() ERC721('LiangNft', 'LNFT'){\r\n\r\n    //set loyalty 2% equal to 200 basis points\r\n    _setDefaultRoyalty(_msgSender(), 200);\r\n  }\r\n\r\n  //This function is to overide supportInterface function of ERC721 and ERC2981l\r\n  function supportsInterface(bytes4 interfaceId) public view virtual override(ERC721, ERC2981) returns (bool) {\r\n      return super.supportsInterface(interfaceId);\r\n  }\r\n\r\n\r\n}\r\n",
  "sourcePath": "D:\\Users\\yesla\\Desktop\\solidityworkspace\\nft_royalty\\contracts\\NFT721Royalty.sol",
  "compiler": {
    "name": "solc",
    "version": "0.8.12+commit.f00d7308.Emscripten.clang"
  },
  "schemaVersion": "3.4.6",
  "updatedAt": "2022-03-21T03:21:36.800Z",
  "networkType": "ethereum",
  "devdoc": {
    "kind": "dev",
    "methods": {
      "approve(address,uint256)": {
        "details": "See {IERC721-approve}."
      },
      "balanceOf(address)": {
        "details": "See {IERC721-balanceOf}."
      },
      "getApproved(uint256)": {
        "details": "See {IERC721-getApproved}."
      },
      "isApprovedForAll(address,address)": {
        "details": "See {IERC721-isApprovedForAll}."
      },
      "name()": {
        "details": "See {IERC721Metadata-name}."
      },
      "ownerOf(uint256)": {
        "details": "See {IERC721-ownerOf}."
      },
      "royaltyInfo(uint256,uint256)": {
        "details": "Returns how much royalty is owed and to whom, based on a sale price that may be denominated in any unit of exchange. The royalty amount is denominated and should be payed in that same unit of exchange."
      },
      "safeTransferFrom(address,address,uint256)": {
        "details": "See {IERC721-safeTransferFrom}."
      },
      "safeTransferFrom(address,address,uint256,bytes)": {
        "details": "See {IERC721-safeTransferFrom}."
      },
      "setApprovalForAll(address,bool)": {
        "details": "See {IERC721-setApprovalForAll}."
      },
      "symbol()": {
        "details": "See {IERC721Metadata-symbol}."
      },
      "tokenURI(uint256)": {
        "details": "See {IERC721Metadata-tokenURI}."
      },
      "transferFrom(address,address,uint256)": {
        "details": "See {IERC721-transferFrom}."
      }
    },
    "version": 1
  },
  "userdoc": {
    "kind": "user",
    "methods": {},
    "version": 1
  }
}